:020000040800F2
:1000000000000220311D0008A51A0008AB1A0008E4
:10001000B11A0008B71A0008BD1A00080000000055
:10002000000000000000000000000000C31A0008EB
:10003000D11A000800000000DF1A0008ED1A0008BD
:10004000811D0008811D0008811D0008811D000818
:10005000811D0008811D0008F91A0008811D000893
:10006000811D0008811D0008811D0008811D0008F8
:10007000811D0008811D0008811D0008811D0008E8
:10008000811D0008811D0008811D0008811D0008D8
:10009000811D0008811D0008811D0008811D0008C8
:1000A000811D0008811D0008811D0008091B000832
:1000B000811D00081D1B0008811D0008811D00080E
:1000C000811D0008811D0008811D0008811D000898
:1000D000811D0008811D0008811D0008811D000888
:1000E000811D0008811D0008811D0008811D000878
:1000F000811D0008811D0008811D0008811D000868
:10010000811D0008811D0008811D0008811D000857
:10011000811D0008811D0008811D0008811D000847
:10012000811D0008811D0008811D0008811D000837
:10013000811D0008811D0008811D0008811D000827
:10014000811D0008811D0008811D0008811D000817
:10015000811D0008811D0008811D0008811D000807
:10016000811D0008811D0008811D0008811D0008F7
:10017000811D0008811D0008811D0008000000008D
:08018000811D0008811D00082B
:1001900010B5054C237833B9044B13B10448AFF3C1
:1001A00000800123237010BD3802002000000000F1
:1001B000206F000808B5034B1BB103490348AFF398
:1001C000008008BD000000003C020020206F0008F5
:1001D000034613F8012B002AFBD1181A0138704787
:1001E00001F0FF01102A2BDB10F0070F08D010F8E8
:1001F000013B013A8B422DD010F0070F42B3F6D1EC
:10020000F0B441EA012141EA014122F007047FF004
:1002100000070023F0E80256083C85EA010586EA5B
:10022000010685FA47F5A3FA87F586FA47F6A5FA97
:1002300087F68EB9EED1F0BC01F0FF0102F00702A3
:1002400032B110F8013B013A83EA010313B1F8D14E
:100250000020704701387047002D06BF354603382F
:10026000073815F0010F07D1013015F4807F02BF68
:10027000013015F4C03F0130F0BC0138704700BFB9
:1002800081F0004102E000BF83F0004330B54FEA47
:1002900041044FEA430594EA050F08BF90EA020FB4
:1002A0001FBF54EA000C55EA020C7FEA645C7FEA47
:1002B000655C00F0E2804FEA5454D4EB5555B8BF6A
:1002C0006D420CDD2C4480EA020281EA030382EADB
:1002D000000083EA010180EA020281EA0303362D6D
:1002E00088BF30BD11F0004F4FEA01314FF4801C40
:1002F0004CEA113102D0404261EB410113F0004F52
:100300004FEA03334CEA133302D0524263EB430308
:1003100094EA050F00F0A780A4F10104D5F1200EA6
:100320000DDB02FA0EFC22FA05F2801841F1000101
:1003300003FA0EF2801843FA05F359410EE0A5F1D5
:1003400020050EF1200E012A03FA0EFC28BF4CF006
:10035000020C43FA05F3C01851EBE37101F00045BC
:1003600007D54FF0000EDCF1000C7EEB00006EEBC9
:100370000101B1F5801F1BD3B1F5001F0CD3490853
:100380005FEA30004FEA3C0C04F101044FEA4452AA
:1003900012F5800F80F09A80BCF1004F08BF5FEA31
:1003A000500C50F1000041EB045141EA050130BD11
:1003B0005FEA4C0C404141EB0101013C28BFB1F523
:1003C000801FE9D291F0000F04BF01460020B1FA6E
:1003D00081F308BF2033A3F10B03B3F120020CDA41
:1003E0000C3208DD02F1140CC2F10C0201FA0CF01F
:1003F00021FA02F10CE002F11402D8BFC2F1200C84
:1004000001FA02F120FA0CFCDCBF41EA0C01904039
:10041000E41AA2BF01EB0451294330BD6FEA040482
:100420001F3C1CDA0C340EDC04F11404C4F120026D
:1004300020FA04F001FA02F340EA030021FA04F37F
:1004400045EA030130BDC4F10C04C4F1200220FAD6
:1004500002F001FA04F340EA0300294630BD21FA14
:1004600004F0294630BD94F0000F83F4801306BFDA
:1004700081F480110134013D4EE77FEA645C18BFCE
:100480007FEA655C29D094EA050F08BF90EA020F65
:1004900005D054EA000C04BF1946104630BD91EA5D
:1004A000030F1EBF0021002030BD5FEA545C05D160
:1004B0004000494128BF41F0004130BD14F580049F
:1004C0003CBF01F5801130BD01F0004545F0FE4113
:1004D00041F470014FF0000030BD7FEA645C1ABF48
:1004E000194610467FEA655C1CBF0B46024650EA7F
:1004F000013406BF52EA033591EA030F41F40021AB
:1005000030BD00BF90F0000F04BF0021704730B530
:100510004FF4806404F132044FF000054FF0000105
:1005200050E700BF90F0000F04BF0021704730B5C6
:100530004FF4806404F1320410F0004548BF40429B
:100540004FF000013EE700BF42004FEAE2014FEAF0
:1005500031014FEA02701FBF12F07F4393F07F4FCB
:1005600081F06051704732F07F4208BF704793F0CE
:100570007F4F04BF41F40021704730B54FF46074E1
:1005800001F0004521F000411CE700BF50EA0102E4
:1005900008BF704730B54FF000050AE050EA01028D
:1005A00008BF704730B511F0004502D5404261EBFD
:1005B00041014FF4806404F132045FEA915C3FF43E
:1005C000D8AE4FF003025FEADC0C18BF03325FEADB
:1005D000DC0C18BF033202EBDC02C2F1200300FA8C
:1005E00003FC20FA02F001FA03FE40EA0E0021FAB1
:1005F00002F11444BDE600BF70B54FF0FF0C4CF49F
:10060000E06C1CEA11541DBF1CEA135594EA0C0F50
:1006100095EA0C0F00F0DEF82C4481EA030621EA8B
:100620004C5123EA4C5350EA013518BF52EA0335C6
:1006300041F4801143F4801338D0A0FB02CE4FF078
:100640000005E1FB02E506F00042E0FB03E54FF0A8
:100650000006E1FB03569CF0000F18BF4EF0010EA0
:10066000A4F1FF04B6F5007F64F5407404D25FEA9C
:100670004E0E6D4146EB060642EAC62141EA55514F
:100680004FEAC52040EA5E504FEACE2EB4F1FD0C91
:1006900088BFBCF5E06F1ED8BEF1004F08BF5FEA0F
:1006A000500E50F1000041EB045170BD06F00046C1
:1006B00046EA010140EA020081EA0301B4EB5C046E
:1006C000C2BFD4EB0C0541EA045170BD41F4801166
:1006D0004FF0000E013C00F3AB8014F1360FDEBF8B
:1006E000002001F0004170BDC4F10004203C35DA67
:1006F0000C341BDC04F11404C4F1200500FA05F3EA
:1007000020FA04F001FA05F240EA020001F000428A
:1007100021F0004110EBD37021FA04F642EB060100
:100720005EEA430E08BF20EAD37070BDC4F10C042A
:10073000C4F1200500FA04F320FA05F001FA04F2EE
:1007400040EA020001F0004110EBD37041F10001DA
:100750005EEA430E08BF20EAD37070BDC4F12005E5
:1007600000FA05F24EEA020E20FA04F301FA05F24D
:1007700043EA020321FA04F001F0004121FA04F2F5
:1007800020EA020000EBD3705EEA430E08BF20EAC5
:10079000D37070BD94F0000F0FD101F000464000FF
:1007A00041EB010111F4801F08BF013CF7D041EA81
:1007B000060195F0000F18BF704703F00046520085
:1007C00043EB030313F4801F08BF013DF7D043EA56
:1007D0000603704794EA0C0F0CEA135518BF95EA0C
:1007E0000C0F0CD050EA410618BF52EA4306D1D193
:1007F00081EA030101F000414FF0000070BD50EAB2
:10080000410606BF1046194652EA430619D094EA3B
:100810000C0F02D150EA013613D195EA0C0F05D125
:1008200052EA03361CBF104619460AD181EA030179
:1008300001F0004141F0FE4141F470014FF0000031
:1008400070BD41F0FE4141F4780170BD70B54FF0CC
:10085000FF0C4CF4E06C1CEA11541DBF1CEA13554C
:1008600094EA0C0F95EA0C0F00F0A7F8A4EB05042E
:1008700081EA030E52EA03354FEA013100F0888025
:100880004FEA03334FF0805545EA131343EA1263EE
:100890004FEA022245EA111545EA10654FEA0026A3
:1008A0000EF000419D4208BF964244F1FD0404F55C
:1008B000407402D25B084FEA3202B61A65EB0305B8
:1008C0005B084FEA32024FF480104FF4002CB6EB75
:1008D000020E75EB030E22BFB61A754640EA0C00F5
:1008E0005B084FEA3202B6EB020E75EB030E22BF35
:1008F000B61A754640EA5C005B084FEA3202B6EB76
:10090000020E75EB030E22BFB61A754640EA9C0034
:100910005B084FEA3202B6EB020E75EB030E22BF04
:10092000B61A754640EADC0055EA060E18D04FEAC2
:10093000051545EA16754FEA06164FEAC30343EA62
:1009400052734FEAC2025FEA1C1CC0D111F4801F2F
:100950000BD141EA00014FF000004FF0004CB6E728
:1009600011F4801F04BF01430020B4F1FD0C88BFC7
:10097000BCF5E06F3FF6AFAEB5EB030C04BFB6EBD2
:10098000020C5FEA500C50F1000041EB045170BDC5
:100990000EF0004E4EEA113114EB5C04C2BFD4EBF2
:1009A0000C0541EA045170BD41F480114FF0000E76
:1009B000013C90E645EA060E8DE60CEA135594EAF2
:1009C0000C0F08BF95EA0C0F3FF43BAF94EA0C0FF5
:1009D0000AD150EA01347FF434AF95EA0C0F7FF46A
:1009E00025AF104619462CE795EA0C0F06D152EABE
:1009F00003353FF4FDAE1046194622E750EA4106A2
:100A000018BF52EA43067FF4C5AE50EA41047FF4B2
:100A10000DAF52EA43057FF4EBAE12E74FF0FF3C17
:100A200006E000BF4FF0010C02E000BF4FF0010CE8
:100A30004DF804CD4FEA410C7FEA6C5C4FEA430C61
:100A400018BF7FEA6C5C1BD001B050EA410C0CBFB0
:100A500052EA430C91EA030F02BF90EA020F002012
:100A6000704710F1000F91EA030F58BF994208BF79
:100A700090422CBFD8176FEAE37040F00100704736
:100A80004FEA410C7FEA6C5C02D150EA013C07D18D
:100A90004FEA430C7FEA6C5CD6D152EA033CD3D0D8
:100AA0005DF8040B704700BF8446104662468C46D2
:100AB0001946634600E000BF01B5FFF7B7FF002805
:100AC00048BF10F1000F01BD4DF808EDFFF7F4FF2E
:100AD0000CBF012000205DF808FB00BF4DF808EDB9
:100AE000FFF7EAFF34BF012000205DF808FB00BFDC
:100AF0004DF808EDFFF7E0FF94BF012000205DF8FE
:100B000008FB00BF4DF808EDFFF7CEFF94BF0120B2
:100B100000205DF808FB00BF4DF808EDFFF7C4FFAB
:100B200034BF012000205DF808FB00BF4FEA410CF4
:100B30007FEA6C5C02D150EA013C0AD14FEA430CD7
:100B40007FEA6C5C02D152EA033C02D14FF0000014
:100B500070474FF0010070474FEA410212F5001252
:100B600015D211D56FF47873B3EB625212D94FEAF4
:100B7000C12343F0004343EA505311F0004F23FADE
:100B800002F018BF404270474FF00000704750EA33
:100B9000013005D111F0004008BF6FF000407047F0
:100BA0004FF00000704700BF53B94AB9002908BF91
:100BB00000281CBF4FF0FF314FF0FF3000F074B938
:100BC000ADF1080C6DE904CE00F006F8DDF804E0A4
:100BD000DDE9022304B070472DE9F047089D044683
:100BE0008E46002B4DD18A42944669D9B2FA82F2E0
:100BF00052B101FA02F3C2F1200120FA01F10CFA1C
:100C000002FC41EA030E94404FEA1C48210CBEFB53
:100C1000F8F61FFA8CF708FB16E341EA034306FBDC
:100C200007F199420AD91CEB030306F1FF3080F06B
:100C30001F81994240F21C81023E63445B1AA4B2B8
:100C4000B3FBF8F008FB103344EA034400FB07F75A
:100C5000A7420AD91CEB040400F1FF3380F00A819B
:100C6000A74240F207816444023840EA0640E41B90
:100C700000261DB1D4400023C5E900433146BDE83C
:100C8000F0878B4209D9002D00F0EF800026C5E9DE
:100C9000000130463146BDE8F087B3FA83F6002EF6
:100CA0004AD18B4202D3824200F2F980841A61EB6E
:100CB000030301209E46002DE0D0C5E9004EDDE78C
:100CC00002B9FFDEB2FA82F2002A40F09280A1EB74
:100CD0000C014FEA1C471FFA8CFE0126200CB1FBC9
:100CE000F7F307FB131140EA01410EFB03F08842C2
:100CF00008D91CEB010103F1FF3802D2884200F24F
:100D0000CB804346091AA4B2B1FBF7F007FB1011E0
:100D100044EA01440EFB00FEA64508D91CEB04047E
:100D200000F1FF3102D2A64500F2BB800846A4EBD9
:100D30000E0440EA03409CE7C6F12007B34022FAC4
:100D400007FC4CEA030C20FA07F401FA06F31C43F3
:100D5000F9404FEA1C4900FA06F3B1FBF9F8200C00
:100D60001FFA8CFE09FB181140EA014108FB0EF046
:100D7000884202FA06F20BD91CEB010108F1FF3A96
:100D800080F08880884240F28580A8F102086144A2
:100D9000091AA4B2B1FBF9F009FB101144EA0141B0
:100DA00000FB0EFE8E4508D91CEB010100F1FF345B
:100DB0006CD28E456AD90238614440EA0840A0FBF3
:100DC0000294A1EB0E01A142C846A64656D353D0C9
:100DD0005DB1B3EB080261EB0E0101FA07F722FAED
:100DE00006F3F1401F43C5E9007100263146BDE816
:100DF000F087C2F12003D8400CFA02FC21FA03F379
:100E0000914001434FEA1C471FFA8CFEB3FBF7F0F9
:100E100007FB10360B0C43EA064300FB0EF69E421E
:100E200004FA02F408D91CEB030300F1FF382FD2B7
:100E30009E422DD9023863449B1B89B2B3FBF7F65F
:100E400007FB163341EA034106FB0EF38B4208D938
:100E50001CEB010106F1FF3816D28B4214D9023E79
:100E60006144C91A46EA004638E72E46284605E797
:100E70000646E3E61846F8E64B45A9D2B9EB020868
:100E800064EB0C0E0138A3E74646EAE7204694E7F8
:100E90004046D1E7D0467BE7023B614432E730462B
:100EA00009E76444023842E7704700BF80B582B06A
:100EB00000AF78607B685B7F002B05D17B681B6A85
:100EC0001B6800225A6318E07B685B7F042B05D106
:100ED0007B681B6A1A68002393630EE07B685B7F64
:100EE000082B05D17B681B6A1A680023D36304E0D2
:100EF0007B681B6A1A68002313647B681A6A7B6824
:100F00005B7F1946104602F055F87B684FF00002EF
:100F10009A657B6800229A627B68002283F825200C
:100F20007B6800221A637B680022DA627B684FF0DC
:100F300000025A657B6800229A637B684FF00002CA
:100F40001A647B684FF000025A647B684FF000021D
:100F50001A657B684FF000025A637B684FF000020D
:100F6000DA637B684FF00002DA647B684FF00002BE
:100F70009A647B6864225A7000BF0837BD4680BD02
:100F800080B483B000AF786039603A687B68DA6219
:100F900000BF0C37BD465DF8047B704780B584B058
:100FA00000AF7860484BFB607B68DA6A7B689B6ABD
:100FB0009A420BDD7B68002283F825207B68DA6A81
:100FC0007B689B6AD21A7B689A631DE07B68DA6A49
:100FD0007B689B6A9A420BDA7B68012283F82520A2
:100FE0007B689A6A7B68DB6AD21A7B689A630BE03B
:100FF0007B68DA6A7B681A637B68022283F82520A3
:101000007B684FF000021A647B689B6B052B11DD37
:101010007B6893ED107A7B689B6B07EE903AF8EE55
:10102000E76AD7ED037A66EEA77A77EE277A7B68D0
:10103000C3ED107A7B689B6B07EE903AB8EEE77AC7
:101040007B68D3ED0D7A77EE677A7B68C3ED127A11
:101050007B68D3ED126A97ED037AC6EE877A7B68D8
:10106000C3ED117A7B6893ED137A7B689B6B07EE77
:10107000903AF8EEE77A27EE277A7B68D3ED116A8B
:101080007B68D3ED157A66EEA77A37EE277A7B6810
:10109000D3ED146A7B68D3ED107A66EEA77A77EE0B
:1010A000277A7B68C3ED167A7B689B6B07EE903AD4
:1010B000F8EEE77A7B68C3ED0D7A786800F023F8E4
:1010C00000BF1037BD4680BDBD37063B80B483B03E
:1010D00000AF78600B46FB70FB78002B05D17B6876
:1010E0009B6A5A1C7B689A6207E0FB78012B04D14B
:1010F0007B689B6A5A1E7B689A6200BF0C37BD46AC
:101100005DF8047B704780B584B000AF7860786884
:1011100000F07EF87B68D3ED167AF5EEC07AF1EE3A
:1011200010FA07D57B68D3ED167AF1EE677A7B6803
:10113000C3ED167A7B68D3ED167AFCEEE77A17EEEC
:10114000903AFB607B685B781A46FB6893422AD929
:101150007B685B7F002B06D17B685A787B681B6AB3
:101160001B685A6350E07B685B7F042B07D17B6868
:1011700059787B681B6A1A680B46936344E07B6866
:101180005B7F082B07D17B6859787B681B6A1A68DC
:101190000B46D36338E07B6859787B681B6A1A6812
:1011A0000B46136430E07B689B6B042B02DDFB680D
:1011B000042B05D80023FB607B68022283F82520DE
:1011C0007B685B7F002B05D17B681B6A1B68FA6814
:1011D0005A6319E07B685B7F042B05D17B681B6A2F
:1011E0001A68FB6893630FE07B685B7F082B05D16F
:1011F0007B681B6A1A68FB68D36305E07B681B6A1F
:101200001A68FB681364FFE700BF1037BD4680BD56
:1012100080B582B000AF78607B6893F82530002BF2
:1012200012D17B6818697B681B7A9BB20122194630
:1012300001F004F97B6898697B681B7D9BB20022F2
:10124000194601F0FBF82EE07B6893F82530012B5E
:1012500012D17B6818697B681B7A9BB20022194601
:1012600001F0ECF87B6898697B681B7D9BB20122DA
:10127000194601F0E3F816E07B6893F82530022B5D
:1012800011D17B6818697B681B7A9BB200221946D2
:1012900001F0D4F87B6898697B681B7D9BB20022C3
:1012A000194601F0CBF800BF0837BD4680BD80B4B9
:1012B00085B000AFF86087ED020AC7ED010A87ED3F
:1012C000001AFB68BA68DA64FB687A681A65FB681A
:1012D0003A685A6500BF1437BD465DF8047B704715
:1012E00080B582B000AF78607B681B7F012B21D175
:1012F0004FF40061114801F089F803461A46104B7B
:101300001A700F4B1B78002B0AD100210D48FFF7F4
:10131000DDFE00224FF400410B4801F08FF809E098
:1013200001210848FFF7D2FE01224FF40041064890
:1013300001F084F800BF0837BD4680BD00100240B0
:101340002C03002000000020000C024080B582B079
:1013500000AF78607B68084A934208D10748FFF7DE
:101360001DFE064B9B6A1946054803F015FD00BF9C
:101370000837BD4680BD00BFE40200200000002009
:10138000386F000880B500AF1A4B9B68194A43F0CC
:101390000F03936000F0F6FC00F03AF800F0BCF99F
:1013A00000F0A0F800F0F4F800F068F94FF47A705B
:1013B00000F05AFD0021104801F014FF0F4801F021
:1013C0002FFD0F48FFF772FD9FED0E1ADFED0E0A9D
:1013D0009FED0E0A0A48FFF76AFF28210848FFF729
:1013E000CFFD4FF4FA7000F03FFD00210448FFF7F5
:1013F000C7FDFEE7002004E054020020E4020020C4
:1014000000000020AC8B5B3C000000003333F33E57
:1014100080B594B000AF07F12003302200211846B8
:1014200003F048F807F10C0300221A605A609A6032
:10143000DA601A610023BB60284B1B6C274A43F01B
:1014400080531364254B1B6C03F08053BB60BB6857
:1014500000237B60224B1B68214A43F480431360C6
:101460001F4B1B6803F480437B607B6801233B6256
:101470004FF480337B620223BB634FF48003FB6332
:1014800004233B6440237B640223BB640723FB6487
:1014900007F12003184601F00FF80346002B01D096
:1014A00000F00EFA0F23FB6002233B6190237B6167
:1014B0004FF48053BB614FF48053FB6107F10C0381
:1014C0000021184601F070FA0346002B01D000F00D
:1014D000F7F900BF5037BD4680BD00BF003802405D
:1014E0000070004080B586B000AF07F11003002205
:1014F0001A605A603B4600221A605A609A60DA60AD
:10150000214B224A1A60204B0F225A601E4B0022A8
:101510009A601D4B4FF6FF72DA601B4B00221A6176
:10152000194B00225A61184B00229A61164801F0AB
:1015300009FE0346002B01D000F0C2F900233B61F5
:1015400000237B6107F1100319460F4802F0F8FEF3
:101550000346002B01D000F0B3F902233B600123C6
:101560007B600023BB600023FB603B4600221946E2
:10157000054802F067F80346002B01D000F0A0F9FF
:1015800000BF1837BD4680BD540200200000014056
:1015900080B58EB000AF07F1280300221A605A60B0
:1015A0009A60DA6007F1200300221A605A603B1D3E
:1015B00000221A605A609A60DA601A615A619A6170
:1015C0002D4B4FF080421A602B4B40F21F325A6075
:1015D000294B00229A60284B6322DA60264B0022B6
:1015E0001A61254B80229A61234801F0C9FB03460A
:1015F000002B01D000F064F94FF48053BB6207F177
:10160000280319461C4802F07BF90346002B01D041
:1016100000F056F9184801F073FC0346002B01D086
:1016200000F04EF900233B6200237B6207F12003A8
:101630001946114802F084FE0346002B01D000F049
:101640003FF960237B600023BB600023FB60002325
:101650007B613B1D04221946074802F08FF80346C0
:10166000002B01D000F02CF9034800F0E3F900BF93
:101670003837BD4680BD00BF9C02002080B586B0D3
:1016800000AF07F1080300221A605A609A60DA601E
:101690003B4600221A605A601D4B1E4A1A601C4BC2
:1016A00000225A601A4B10229A60194B47F6FF72BB
:1016B000DA60174B00221A61154B80229A61144898
:1016C00001F05EFB0346002B01D000F0F9F84FF467
:1016D0008053BB6007F1080319460D4802F010F96A
:1016E0000346002B01D000F0EBF800233B60002301
:1016F0007B603B461946064802F022FE0346002B5B
:1017000001D000F0DDF800BF1837BD4680BD00BF36
:10171000E40200200004004080B58CB000AF07F167
:101720001C0300221A605A609A60DA601A61002372
:10173000BB615D4B1B6B5C4A43F0800313635A4BE8
:101740001B6B03F08003BB61BB6900237B61564BBD
:101750001B6B554A43F004031363534B1B6B03F09D
:1017600004037B617B6900233B614F4B1B6B4E4A3B
:1017700043F0010313634C4B1B6B03F001033B610C
:101780003B690023FB60484B1B6B474A43F0020355
:101790001363454B1B6B03F00203FB60FB680023E4
:1017A000BB60414B1B6B404A43F0100313633E4B3D
:1017B0001B6B03F01003BB60BB6800237B603A4BDC
:1017C0001B6B394A43F008031363374B1B6B03F061
:1017D00008037B607B6800220C21344800F02EFE59
:1017E00000224FF40041324800F028FE0123FB6143
:1017F0004FF488133B6201237B6207F11C031946F7
:101800002C4800F067FC0C23FB6101233B620023A2
:101810007B620023BB6207F11C031946234800F0DA
:1018200059FC0423FB6100233B6200237B6207F128
:101830001C031946204800F04DFC4FF40063FB6187
:1018400000233B6200237B6207F11C0319461B48FF
:1018500000F040FC4FF40053FB614FF488133B62EF
:1018600000237B6207F11C031946114800F032FC8B
:101870004FF40043FB6101233B6200237B620023A2
:10188000BB6207F11C031946094800F023FC002243
:101890000021062000F0E7FB062000F000FC00BF5E
:1018A0003037BD4680BD00BF003802400000024016
:1018B000000C0240000802400004024000100240F8
:1018C00080B400AF72B600BFFEE7000080B582B002
:1018D00000AF00237B60104B5B6C0F4A43F48043E6
:1018E00053640D4B5B6C03F480437B607B68002387
:1018F0003B60094B1B6C084A43F080531364064B52
:101900001B6C03F080533B603B68072000F0A0FB9A
:1019100000BF0837BD4680BD0038024080B58AB0A0
:1019200000AF786007F1140300221A605A609A60D1
:10193000DA601A617B681B681D4A934234D1002328
:101940003B611C4B5B6C1B4A43F001035364194B16
:101950005B6C03F001033B613B690023FB60154BAB
:101960001B6B144A43F010031363124B1B6B03F001
:101970001003FB60FB684FF400737B610223BB61C3
:101980000023FB6100233B6201237B6207F1140308
:101990001946094800F09EFB002200211B2000F0A0
:1019A00062FB1B2000F07BFB00BF2837BD4680BDDB
:1019B00000000140003802400010024080B584B0B1
:1019C00000AF78607B681B68B3F1804F0ED10023B5
:1019D000FB60164B1B6C154A43F001031364134B59
:1019E0001B6C03F00103FB60FB681AE07B681B685B
:1019F0000F4A934215D10023BB600C4B1B6C0B4A62
:101A000043F002031364094B1B6C03F00203BB6039
:101A1000BB68002200211D2000F025FB1D2000F0E6
:101A20003EFB00BF1037BD4680BD00BF00380240FE
:101A30000004004080B588B000AF786007F10C0367
:101A400000221A605A609A60DA601A617B681B682B
:101A5000B3F1804F1DD10023BB60104B1B6B0F4AAD
:101A600043F0010313630D4B1B6B03F00103BB60D9
:101A7000BB680223FB6002233B6100237B610023E0
:101A8000BB610123FB6107F10C031946044800F018
:101A900021FB00BF2037BD4680BD00BF003802409B
:101AA0000000024080B400AFFEE780B400AFFEE764
:101AB00080B400AFFEE780B400AFFEE780B400AFB3
:101AC000FEE780B400AF00BFBD465DF8047B704701
:101AD00080B400AF00BFBD465DF8047B704780B4A2
:101AE00000AF00BFBD465DF8047B704780B500AF16
:101AF00000F09AF900BF80BD80B500AF012000F072
:101B0000B7FC00BF80BD000080B500AF024801F007
:101B100091FC00BF80BD00BF5402002080B500AF23
:101B2000024801F087FC00BF80BD00BFE402002036
:101B300080B483B000AF0346FB710F4B1B680E4AA5
:101B400043F0807313600D4B1B680C4A43F0010394
:101B5000136000BF4FF060431B6803F00103002BCC
:101B6000F8D04FF06042FB79136000BF0C37BD46E0
:101B70005DF8047B704700BFFCED00E0000E00E064
:101B800080B400AF01231846BD465DF8047B704762
:101B900080B582B000AF7860396002F061FC034626
:101BA00016221A604FF0FF3318460837BD4680BD35
:101BB00080B582B000AF78604FF0FF317868FFF7F2
:101BC000E7FFFEE780B586B000AFF860B9607A60E5
:101BD00000237B610AE0AFF300800146BB685A1C1A
:101BE000BA60CAB21A707B6901337B617A697B681B
:101BF0009A42F0DB7B6818461837BD4680BD80B539
:101C000086B000AFF860B9607A6000237B6109E0BC
:101C1000BB685A1CBA601B781846FFF789FF7B69BE
:101C200001337B617A697B689A42F1DB7B681846F5
:101C30001837BD4680BD80B483B000AF78604FF0E8
:101C4000FF3318460C37BD465DF8047B704780B4FF
:101C500083B000AF786039603B684FF400525A603F
:101C6000002318460C37BD465DF8047B704780B4EE
:101C700083B000AF7860012318460C37BD465DF88D
:101C8000047B704780B485B000AFF860B9607A60BB
:101C9000002318461437BD465DF8047B70470000EA
:101CA00080B586B000AF7860144A154BD31A7B61BB
:101CB0007B693B61134B1B68002B02D1114B124A0D
:101CC0001A60104B1A687B6813443A699A4207D22B
:101CD00002F0C6FB03460C221A604FF0FF3309E006
:101CE000084B1B68FB60074B1A687B681344054A66
:101CF0001360FB6818461837BD4680BD00000220FF
:101D000000040000300300204803002080B400AF2E
:101D1000064BD3F88830054A43F47003C2F8883084
:101D200000BFBD465DF8047B704700BF00ED00E0DA
:101D3000DFF834D00D480E490E4A002302E0D45893
:101D4000C4500433C4188C42F9D30B4A0B4C002303
:101D500001E013600432A242FBD3FFF7D7FF02F089
:101D600085FBFFF70FFB70470000022000000020FA
:101D7000380200203C73000838020020480300208D
:101D8000FEE7000080B500AF0E4B1B680D4A43F420
:101D9000007313600B4B1B680A4A43F480631360A3
:101DA000084B1B68074A43F480731360032000F05C
:101DB0004FF9002000F008F8FFF788FD00231846CF
:101DC00080BD00BF003C024080B582B000AF7860AB
:101DD000124B1A68124B1B7819464FF47A73B3FBF7
:101DE000F1F3B2FBF3F3184600F067F90346002B5A
:101DF00001D001230EE07B680F2B0AD800227968FE
:101E00004FF0FF3000F02FF9064A7B681360002383
:101E100000E0012318460837BD4680BD5C00002065
:101E2000640000206000002080B400AF064B1B78E7
:101E30001A46064B1B681344044A136000BFBD4694
:101E40005DF8047B704700BF64000020340300206D
:101E500080B400AF034B1B681846BD465DF8047B99
:101E6000704700BF3403002080B584B000AF7860B5
:101E7000FFF7EEFFB8607B68FB60FB68B3F1FF3FE4
:101E800005D00A4B1B781A46FB681344FB6000BF61
:101E9000FFF7DEFF0246BB68D31AFA689A42F7D80A
:101EA00000BF00BF1037BD4680BD00BF64000020EA
:101EB00080B485B000AF78607B6803F00703FB60F7
:101EC0000C4BDB68BB60BA684FF6FF031340BB6086
:101ED000FB681A02BB68134343F0BF6343F400334B
:101EE000BB60044ABB68D36000BF1437BD465DF8D1
:101EF000047B704700ED00E080B400AF044BDB686A
:101F00001B0A03F007031846BD465DF8047B7047C3
:101F100000ED00E080B483B000AF0346FB7197F999
:101F20000730002B0BDBFB7903F01F02074997F901
:101F300007305B09012000FA02F241F8232000BFBC
:101F40000C37BD465DF8047B704700BF00E100E040
:101F500080B483B000AF03463960FB7197F9073056
:101F6000002B0ADB3B68DAB20C4997F90730120103
:101F7000D2B20B4483F800230AE03B68DAB2084986
:101F8000FB7903F00F03043B1201D2B20B441A7623
:101F900000BF0C37BD465DF8047B704700E100E0F0
:101FA00000ED00E080B489B000AFF860B9607A60FD
:101FB000FB6803F00703FB61FB69C3F10703042B14
:101FC00028BF0423BB61FB690433062B02D9FB69DC
:101FD000033B00E000237B614FF0FF32BB6902FA54
:101FE00003F3DA43BB681A407B699A404FF0FF3134
:101FF0007B6901FA03F3D9437B680B40134318460E
:102000002437BD465DF8047B7047000080B582B080
:1020100000AF78607B68013BB3F1807F01D301237F
:102020000FE00A4A7B68013B53600F214FF0FF30FD
:10203000FFF78EFF054B00229A60044B07221A60BF
:10204000002318460837BD4680BD00BF10E000E001
:1020500080B582B000AF78607868FFF729FF00BFD5
:102060000837BD4680BD80B586B000AF0346B96075
:102070007A60FB7300237B61FFF73EFF78617A682B
:10208000B9687869FFF78EFF024697F90F3011465D
:102090001846FFF75DFF00BF1837BD4680BD80B50D
:1020A00082B000AF0346FB7197F907301846FFF77F
:1020B00031FF00BF0837BD4680BD80B582B000AF9C
:1020C00078607868FFF7A2FF034618460837BD46D8
:1020D00080BD000080B489B000AF78603960002313
:1020E0007B6100233B610023BB610023FB616BE14B
:1020F0000122FB6902FA03F37B613B681B687A6982
:1021000013403B613A697B699A4240F05A813B68CF
:102110005B6803F00303012B05D03B685B6803F0A9
:102120000303022B30D17B689B68BB61FB695B00BA
:10213000032202FA03F3DB43BA691340BB613B6835
:10214000DA68FB695B0002FA03F3BA691343BB6107
:102150007B68BA699A607B685B68BB610122FB6936
:1021600002FA03F3DB43BA691340BB613B685B6867
:102170001B0903F00102FB6902FA03F3BA69134376
:10218000BB617B68BA695A603B685B6803F0030314
:10219000032B17D07B68DB68BB61FB695B00032204
:1021A00002FA03F3DB43BA691340BB613B689A68E8
:1021B000FB695B0002FA03F3BA691343BB617B68F6
:1021C000BA69DA603B685B6803F00303022B23D132
:1021D000FB69DA087B68083253F82230BB61FB697F
:1021E00003F007039B000F2202FA03F3DB43BA69F3
:1021F0001340BB613B681A69FB6903F007039B004E
:1022000002FA03F3BA691343BB61FB69DA087B681E
:102210000832B96943F822107B681B68BB61FB690F
:102220005B00032202FA03F3DB43BA691340BB618C
:102230003B685B6803F00302FB695B0002FA03F38F
:10224000BA691343BB617B68BA691A603B685B6813
:1022500003F44033002B00F0B4800023FB60604B9C
:102260005B6C5F4A43F4804353645D4B5B6C03F4E7
:102270008043FB60FB685B4AFB699B08023352F8B2
:102280002330BB61FB6903F003039B000F2202FABA
:1022900003F3DB43BA691340BB617B68524A934244
:1022A0002BD07B68514A934225D07B68504A934299
:1022B0001FD07B684F4A934219D07B684E4A9342A5
:1022C00013D07B684D4A93420DD07B684C4A9342B1
:1022D00007D07B684B4A934201D107230EE00823C5
:1022E0000CE006230AE0052308E0042306E00323AC
:1022F00004E0022302E0012300E00023FA6902F077
:10230000030292009340BA691343BB613549FB69EC
:102310009B080233BA6941F823203B4B9B68BB61A1
:102320003B69DB43BA691340BB613B685B6803F4FC
:102330008013002B03D0BA693B691343BB61324A57
:10234000BB699360304BDB68BB613B69DB43BA69B7
:102350001340BB613B685B6803F40013002B03D0A0
:10236000BA693B691343BB61274ABB69D360264BFB
:102370005B68BB613B69DB43BA691340BB613B6887
:102380005B6803F40033002B03D0BA693B69134345
:10239000BB611D4ABB6953601B4B1B68BB613B693A
:1023A000DB43BA691340BB613B685B6803F480336D
:1023B000002B03D0BA693B691343BB61124ABB6966
:1023C0001360FB690133FB61FB690F2B7FF690AE55
:1023D00000BF00BF2437BD465DF8047B704700BFD7
:1023E0000038024000380140000002400004024072
:1023F00000080240000C024000100240001402409D
:1024000000180240001C0240003C014080B485B02E
:1024100000AF78600B467B807B681A697B8813402D
:10242000002B02D00123FB7301E00023FB73FB7B35
:1024300018461437BD465DF8047B704780B483B0FE
:1024400000AF78600B467B8013467B707B78002B57
:1024500003D07A887B689A6103E07B881A047B68E2
:102460009A6100BF0C37BD465DF8047B70470000E1
:1024700080B582B000AF0346FB80084B5A69FB88E9
:102480001340002B06D0054AFB885361FB88184691
:1024900000F006F800BF0837BD4680BD003C014093
:1024A00080B483B000AF0346FB8000BF0C37BD464D
:1024B0005DF8047B7047000080B586B000AF78609F
:1024C0007B68002B01D1012367E27B681B6803F066
:1024D0000103002B75D0884B9B6803F00C03042B81
:1024E0000CD0854B9B6803F00C03082B12D1824B58
:1024F0005B6803F48003B3F5800F0BD17E4B1B6840
:1025000003F40033002B5BD07B685B68002B57D152
:10251000012342E27B685B68B3F5803F06D1764BCE
:102520001B68754A43F4803313601DE07B685B6869
:10253000B3F5A02F0CD1704B1B686F4A43F4802376
:1025400013606D4B1B686C4A43F4803313600BE0DF
:10255000694B1B68684A23F480331360664B1B6821
:10256000654A23F4802313607B685B68002B13D0DB
:10257000FFF76EFC386108E0FFF76AFC02463B6932
:10258000D31A642B01D9032307E25B4B1B6803F4C6
:102590000033002BF0D014E0FFF75AFC386108E05C
:1025A000FFF756FC02463B69D31A642B01D903237B
:1025B000F3E1514B1B6803F40033002BF0D100E032
:1025C00000BF7B681B6803F00203002B63D04A4BFB
:1025D0009B6803F00C03002B0BD0474B9B6803F068
:1025E0000C03082B1CD1444B5B6803F48003002BC5
:1025F00016D1414B1B6803F00203002B05D07B680A
:10260000DB68012B01D00123C7E13B4B1B6823F0A2
:10261000F8027B681B69DB00374913430B603AE023
:102620007B68DB68002B20D0344B01221A60FFF757
:102630000FFC386108E0FFF70BFC02463B69D31A38
:10264000022B01D90323A8E12B4B1B6803F00203E3
:10265000002BF0D0284B1B6823F0F8027B681B6925
:10266000DB00254913430B6015E0244B00221A6060
:10267000FFF7EEFB386108E0FFF7EAFB02463B6933
:10268000D31A022B01D9032387E11B4B1B6803F0EC
:102690000203002BF0D17B681B6803F00803002BBA
:1026A00036D07B685B69002B16D0154B01221A606F
:1026B000FFF7CEFB386108E0FFF7CAFB02463B6933
:1026C000D31A022B01D9032367E10B4B5B6F03F095
:1026D0000203002BF0D01BE0094B00221A60FFF729
:1026E000B7FB38610EE0FFF7B3FB02463B69D31A34
:1026F000022B07D9032350E1003802400000474273
:10270000800E4742884B5B6F03F00203002BEAD137
:102710007B681B6803F00403002B00F09780002304
:10272000FB75814B1B6C03F08053002B0FD10023F2
:10273000BB607D4B1B6C7C4A43F0805313647A4B27
:102740001B6C03F08053BB60BB680123FB75774BA8
:102750001B6803F48073002B18D1744B1B68734AF9
:1027600043F480731360FFF773FB386108E0FFF7F1
:102770006FFB02463B69D31A022B01D903230CE1FC
:102780006A4B1B6803F48073002BF0D07B689B6856
:10279000012B06D1644B1B6F634A43F0010313679F
:1027A0001CE07B689B68052B0CD15F4B1B6F5E4A5E
:1027B00043F0040313675C4B1B6F5B4A43F0010358
:1027C00013670BE0584B1B6F574A23F00103136745
:1027D000554B1B6F544A23F0040313677B689B68B7
:1027E000002B15D0FFF734FB38610AE0FFF730FB10
:1027F00002463B69D31A41F28832934201D903233E
:10280000CBE0494B1B6F03F00203002BEED014E02A
:10281000FFF71EFB38610AE0FFF71AFB02463B692F
:10282000D31A41F28832934201D90323B5E03E4BDB
:102830001B6F03F00203002BEED1FB7D012B05D1B2
:10284000394B1B6C384A23F0805313647B689B69B7
:10285000002B00F0A180344B9B6803F00C03082B85
:102860005CD07B689B69022B41D1314B00221A60FE
:10287000FFF7EEFA386108E0FFF7EAFA02463B6933
:10288000D31A022B01D9032387E0274B1B6803F0DF
:102890000073002BF0D17B68DA697B681B6A1A43EE
:1028A0007B685B6A9B011A437B689B6A5B08013B00
:1028B0001B041A437B68DB6A1B061B4913434B60EE
:1028C0001B4B01221A60FFF7C3FA386108E0FFF7DB
:1028D000BFFA02463B69D31A022B01D903235CE0FD
:1028E000114B1B6803F00073002BF0D054E0104B29
:1028F00000221A60FFF7ACFA386108E0FFF7A8FA87
:1029000002463B69D31A022B01D9032345E0064B4B
:102910001B6803F00073002BF0D13DE07B689B69DE
:10292000012B07D1012338E000380240007000403D
:10293000600047421B4B5B68FB607B689B69012B17
:1029400028D0FB6803F480027B68DB699A4221D1BE
:10295000FB6803F03F027B681B6A9A421AD1FA684F
:1029600047F6C07313407A68526A9201934211D1BC
:10297000FB6803F440327B689B6A5B08013B1B04E5
:102980009A4207D1FB6803F070627B68DB6A1B0622
:102990009A4201D0012300E0002318461837BD46B3
:1029A00080BD00BF0038024080B584B000AF7860C1
:1029B00039607B68002B01D10123CCE0684B1B6898
:1029C00003F007033A689A420CD9654B3A68D2B2D1
:1029D0001A70634B1B6803F007033A689A4201D0F0
:1029E0000123B8E07B681B6803F00203002B20D0B2
:1029F0007B681B6803F00403002B05D0594B9B68D0
:102A0000584A43F4E05393607B681B6803F0080363
:102A1000002B05D0534B9B68524A43F460439360AC
:102A2000504B9B6823F0F0027B689B684D49134331
:102A30008B607B681B6803F00103002B44D07B682C
:102A40005B68012B07D1474B1B6803F40033002B55
:102A500019D101237FE07B685B68022B03D07B6880
:102A60005B68032B07D13F4B1B6803F00073002BFF
:102A700009D101236FE03B4B1B6803F00203002BDD
:102A800001D1012367E0374B9B6823F003027B6889
:102A90005B68344913438B60FFF7DAF9F8600AE0AA
:102AA000FFF7D6F90246FB68D31A41F28832934207
:102AB00001D903234FE02B4B9B6803F00C027B688A
:102AC0005B689B009A42EBD1254B1B6803F0070320
:102AD0003A689A420CD2224B3A68D2B21A70204B12
:102AE0001B6803F007033A689A4201D0012332E0E1
:102AF0007B681B6803F00403002B08D0194B9B680C
:102B000023F4E0527B68DB68164913438B607B68D3
:102B10001B6803F00803002B09D0124B9B6823F4B9
:102B200060427B681B69DB000E4913438B6000F039
:102B300021F802460B4B9B681B0903F00F030A495F
:102B4000CB5C22FA03F3094A1360094B1B68184651
:102B5000FFF73AF9002318461037BD4680BD00BF85
:102B6000003C024000380240406F00085C0000203A
:102B7000600000202DE9B04F94B000AF00237B64CB
:102B80000023FB6400233B640023BB64794B9B68F8
:102B900003F00C03082B0DD0082B00F2E180002B72
:102BA00002D0042B03D0DBE0734BBB64DBE0734B40
:102BB000BB64D8E06F4B5B6803F03F037B646D4BF5
:102BC0005B6803F48003002B63D06A4B5B689B094E
:102BD0000022BB63FA63BB6BC3F308033B630023B0
:102BE0007B63D7E90C4522462B464FF000004FF09F
:102BF0000001590141EAD261500102460B462146CB
:102C0000511A3961294663EB01037B614FF00002E1
:102C10004FF00003D7E904AB59468B01514643EA14
:102C2000916351468A015146B2EB0108594663EB64
:102C300001094FF000024FF000034FEAC90343EAD5
:102C400058734FEAC80290469946234618EB03038F
:102C5000BB602B4649EB0303FB604FF000024FF0D3
:102C60000003D7E9024529464B02214643EAD153E6
:102C700021464A02104619467B6C0022BB62FA626A
:102C8000D7E90A23FDF790FF02460B461346FB6483
:102C900058E0384B5B689B09002218461146C0F388
:102CA00008033B6200237B62D7E9088942464B4612
:102CB0004FF000004FF00001590141EAD26150018C
:102CC00002460B464146B2EB010A494663EB010B53
:102CD0004FF000024FF000034FEA8B1343EA9A6370
:102CE0004FEA8A12B2EB0A0463EB0B054FF00002C5
:102CF0004FF00003EB0043EA5473E20014461D4614
:102D00004346E3183B604B4645EB03037B604FF0C3
:102D100000024FF00003D7E9004529468B02214607
:102D200043EA915321468A02104619467B6C0022E1
:102D3000BB61FA61D7E90623FDF736FF02460B4671
:102D40001346FB640B4B5B681B0C03F0030301335E
:102D50005B003B64FA6C3B6CB2FBF3F3BB6402E0D8
:102D6000054BBB6400BFBB6C18465037BD46BDE881
:102D7000B08F00BF003802400024F40000127A0037
:102D800080B582B000AF78607B68002B01D1012351
:102D900041E07B6893F83D30DBB2002B06D17B68C5
:102DA000002283F83C207868FEF708FE7B68022248
:102DB00083F83D207B681A687B6804331946104607
:102DC00000F084FE7B68012283F846207B680122A4
:102DD00083F83E207B68012283F83F207B68012234
:102DE00083F840207B68012283F841207B68012220
:102DF00083F842207B68012283F843207B6801220C
:102E000083F844207B68012283F845207B680122F7
:102E100083F83D20002318460837BD4680BD0000DA
:102E200080B485B000AF78607B6893F83D30DBB24A
:102E3000012B01D001234EE07B68022283F83D2064
:102E40007B681B68DA687B681B6842F00102DA6005
:102E50007B681B68234A934222D07B681B68B3F1CE
:102E6000804F1DD07B681B681F4A934218D07B6837
:102E70001B681E4A934213D07B681B681C4A93420E
:102E80000ED07B681B681B4A934209D07B681B6885
:102E9000194A934204D07B681B68184A934211D1A7
:102EA0007B681B689B6803F00703FB60FB68062BCD
:102EB00010D07B681B681A687B681B6842F00102AF
:102EC0001A6007E07B681B681A687B681B6842F021
:102ED00001021A60002318461437BD465DF8047BD2
:102EE000704700BF0000014000040040000800409F
:102EF000000C004000040140004001400018004068
:102F000080B582B000AF78607B68002B01D10123CF
:102F100041E07B6893F83D30DBB2002B06D17B6843
:102F2000002283F83C20786800F039F87B680222A0
:102F300083F83D207B681A687B6804331946104685
:102F400000F0C4FD7B68012283F846207B680122E3
:102F500083F83E207B68012283F83F207B680122B2
:102F600083F840207B68012283F841207B6801229E
:102F700083F842207B68012283F843207B6801228A
:102F800083F844207B68012283F845207B68012276
:102F900083F83D20002318460837BD4680BD80B425
:102FA00083B000AF786000BF0C37BD465DF8047B8E
:102FB0007047000080B584B000AF786039603B682E
:102FC000002B09D17B6893F83E30DBB2012B14BF94
:102FD00001230023DBB222E03B68042B09D17B688C
:102FE00093F83F30DBB2012B14BF01230023DBB287
:102FF00015E03B68082B09D17B6893F84030DBB2C1
:10300000012B14BF01230023DBB208E07B6893F897
:103010004130DBB2012B14BF01230023DBB2002BB4
:1030200001D001237CE03B68002B04D17B680222A5
:1030300083F83E2013E03B68042B04D17B68022216
:1030400083F83F200BE03B68082B04D17B68022209
:1030500083F8402003E07B68022283F841207B68EC
:103060001B6801223968184601F044F97B681B6827
:103070002D4A934204D07B681B682C4A934201D1AD
:10308000012300E00023002B07D07B681B685A6CEB
:103090007B681B6842F400425A647B681B68224AC2
:1030A000934222D07B681B68B3F1804F1DD07B68B0
:1030B0001B681F4A934218D07B681B681D4A9342C5
:1030C00013D07B681B681C4A93420ED07B681B6838
:1030D000164A934209D07B681B68184A934204D071
:1030E0007B681B68164A934211D17B681B689B68FA
:1030F00003F00703FB60FB68062B10D07B681B689E
:103100001A687B681B6842F001021A6007E07B685E
:103110001B681A687B681B6842F001021A60002372
:1031200018461037BD4680BD000001400004014034
:103130000004004000080040000C00400040014036
:103140000018004080B582B000AF78607B68002B2B
:1031500001D1012341E07B6893F83D30DBB2002BC5
:1031600006D17B68002283F83C207868FEF7D6FB06
:103170007B68022283F83D207B681A687B680433F1
:103180001946104600F0A2FC7B68012283F8462015
:103190007B68012283F83E207B68012283F83F2070
:1031A0007B68012283F840207B68012283F841205C
:1031B0007B68012283F842207B68012283F8432048
:1031C0007B68012283F844207B68012283F8452034
:1031D0007B68012283F83D20002318460837BD464E
:1031E00080BD000080B584B000AF786039600023F6
:1031F000FB733B68002B04D17B6893F83E30DBB255
:1032000013E03B68042B04D17B6893F83F30DBB2BA
:103210000BE03B68082B04D17B6893F84030DBB2AD
:1032200003E07B6893F84130DBB2BB733B68002B53
:1032300004D17B6893F84230DBB213E03B68042B87
:1032400004D17B6893F84330DBB20BE03B68082B7A
:1032500004D17B6893F84430DBB203E07B6893F8D9
:103260004530DBB27B73BB7B012B02D17B7B012B17
:1032700001D00123CCE03B68002B04D17B68022203
:1032800083F83E2013E03B68042B04D17B680222C4
:1032900083F83F200BE03B68082B04D17B680222B7
:1032A00083F8402003E07B68022283F841203B68DA
:1032B000002B04D17B68022283F8422013E03B6894
:1032C000042B04D17B68022283F843200BE03B6887
:1032D000082B04D17B68022283F8442003E07B683A
:1032E000022283F845203B680C2B41D801A252F8FA
:1032F00023F000BF29330008713300087133000840
:10330000713300083B330008713300087133000843
:10331000713300084D330008713300087133000821
:10332000713300085F3300087B681B68DA687B68CC
:103330001B6842F00202DA601DE07B681B68DA68F5
:103340007B681B6842F00402DA6014E07B681B684B
:10335000DA687B681B6842F00802DA600BE07B6881
:103360001B68DA687B681B6842F01002DA6002E0D2
:103370000123FB7300BFFB7B002B48D17B681B68DC
:1033800001223968184600F0B5FF7B681B68224AA5
:10339000934222D07B681B68B3F1804F1DD07B68BD
:1033A0001B681E4A934218D07B681B681C4A9342D4
:1033B00013D07B681B681B4A93420ED07B681B6846
:1033C000194A934209D07B681B68184A934204D07B
:1033D0007B681B68164A934211D17B681B689B6807
:1033E00003F00703BB60BB68062B10D07B681B682B
:1033F0001A687B681B6842F001021A6007E07B686C
:103400001B681A687B681B6842F001021A60FB7B2C
:1034100018461037BD4680BD000001400004004042
:1034200000080040000C0040000401400040014042
:103430000018004080B582B000AF78607B681B68E0
:103440001B6903F00203022B22D17B681B68DB6837
:1034500003F00203022B1BD17B681B686FF0020292
:103460001A617B6801221A777B681B689B6903F0ED
:103470000303002B03D07868FDF732FF05E078687E
:1034800000F005FB786800F00CFB7B6800221A77DF
:103490007B681B681B6903F00403042B22D17B6843
:1034A0001B68DB6803F00403042B1BD17B681B68DB
:1034B0006FF004021A617B6802221A777B681B682E
:1034C0009B6903F44073002B03D07868FDF708FF75
:1034D00005E0786800F0DBFA786800F0E2FA7B68D3
:1034E00000221A777B681B681B6903F00803082B0E
:1034F00022D17B681B68DB6803F00803082B1BD113
:103500007B681B686FF008021A617B6804221A77D7
:103510007B681B68DB6903F00303002B03D078682A
:10352000FDF7DEFE05E0786800F0B1FA786800F09B
:10353000B8FA7B6800221A777B681B681B6903F066
:103540001003102B22D17B681B68DB6803F010038B
:10355000102B1BD17B681B686FF010021A617B680F
:1035600008221A777B681B68DB6903F44073002B21
:1035700003D07868FDF7B4FE05E0786800F087FABC
:10358000786800F08EFA7B6800221A777B681B68E7
:103590001B6903F00103012B0ED17B681B68DB68FC
:1035A00003F00103012B07D17B681B686FF0010258
:1035B0001A617868FDF7CAFE7B681B681B6903F017
:1035C0008003802B0ED17B681B68DB6803F08003CF
:1035D000802B07D17B681B686FF080021A617868C6
:1035E00000F034FF7B681B681B6903F04003402B2D
:1035F0000ED17B681B68DB6803F04003402B07D1CA
:103600007B681B686FF040021A61786800F053FA1B
:103610007B681B681B6903F02003202B0ED17B689D
:103620001B68DB6803F02003202B07D17B681B6835
:103630006FF020021A61786800F0FEFE00BF0837C4
:10364000BD4680BD80B586B000AFF860B9607A60D5
:103650000023FB75FB6893F83C30012B01D102235A
:1036600088E0FB68012283F83C207B68002B1BD19B
:10367000FB681868BB681968BB685A68BB68DB6878
:1036800000F074FCFB681B689A69FB681B6822F0F9
:103690000C029A61FB681B689969BB689A68FB68B1
:1036A0001B680A439A6160E07B68042B1CD1FB68AD
:1036B0001868BB681968BB685A68BB68DB6800F0AB
:1036C000F8FCFB681B689A69FB681B6822F440627F
:1036D0009A61FB681B689969BB689B681A02FB6862
:1036E0001B680A439A6140E07B68082B1BD1FB688A
:1036F0001868BB681968BB685A68BB68DB6800F06B
:1037000045FDFB681B68DA69FB681B6822F00C0248
:10371000DA61FB681B68D969BB689A68FB681B683B
:103720000A43DA6121E07B680C2B1CD1FB68186826
:10373000BB681968BB685A68BB68DB6800F062FD4B
:10374000FB681B68DA69FB681B6822F44062DA6177
:10375000FB681B68D969BB689B681A02FB681B6819
:103760000A43DA6101E00123FB75FB68002283F85C
:103770003C20FB7D18461837BD4680BD80B586B01D
:1037800000AFF860B9607A600023FB75FB6893F8BE
:103790003C30012B01D10223AEE0FB68012283F80B
:1037A0003C207B680C2B00F29F8001A252F823F092
:1037B000E5370008E9380008E9380008E93800086A
:1037C00025380008E9380008E9380008E938000819
:1037D00067380008E9380008E9380008E9380008C7
:1037E000A7380008FB681B68B968184600F00EFA95
:1037F000FB681B689A69FB681B6842F008029A61C3
:10380000FB681B689A69FB681B6822F004029A61D6
:10381000FB681B689969BB681A69FB681B680A43E7
:103820009A6164E0FB681B68B968184600F05EFAAC
:10383000FB681B689A69FB681B6842F400629A6126
:10384000FB681B689A69FB681B6822F480629A61B6
:10385000FB681B689969BB681B691A02FB681B68D7
:103860000A439A6143E0FB681B68B968184600F098
:10387000B3FAFB681B68DA69FB681B6842F0080250
:10388000DA61FB681B68DA69FB681B6822F00402D6
:10389000DA61FB681B68D969BB681A69FB681B6839
:1038A0000A43DA6123E0FB681B68B968184600F038
:1038B00007FBFB681B68DA69FB681B6842F400625F
:1038C000DA61FB681B68DA69FB681B6822F48062B6
:1038D000DA61FB681B68D969BB681B691A02FB685F
:1038E0001B680A43DA6102E00123FB7500BFFB6835
:1038F000002283F83C20FB7D18461837BD4680BD6A
:1039000080B584B000AF786039600023FB737B68BA
:1039100093F83C30012B01D10223B4E07B680122F3
:1039200083F83C207B68022283F83D207B681B687B
:103930009B68BB60BB6823F07703BB60BB6823F464
:103940007F43BB607B681B68BA689A603B681B68F2
:10395000B3F5005F3ED0B3F5005F00F28780B3F5AA
:10396000805F00F08680B3F5805F7FD8702B1AD01F
:10397000702B7BD8602B50D0602B77D8502B3CD04D
:10398000502B73D8402B58D0402B6FD8302B64D09D
:10399000302B6BD8202B60D0202B67D8002B5CD02D
:1039A000102B5AD062E07B6818683B6899683B68C6
:1039B0005A683B68DB6800F07DFC7B681B689B688D
:1039C000BB60BB6843F07703BB607B681B68BA6869
:1039D0009A604FE07B6818683B6899683B685A6852
:1039E0003B68DB6800F066FC7B681B689A687B6854
:1039F0001B6842F480429A603CE07B6818683B6830
:103A000059683B68DB681A4600F024FB7B681B683A
:103A10005021184600F033FC2CE07B6818683B68A6
:103A200059683B68DB681A4600F080FB7B681B68BE
:103A30006021184600F023FC1CE07B6818683B6896
:103A400059683B68DB681A4600F004FB7B681B681A
:103A50004021184600F013FC0CE07B681A683B68B4
:103A60001B681946104600F00AFC03E00123FB73B3
:103A700000E000BF7B68012283F83D207B680022C4
:103A800083F83C20FB7B18461037BD4680BD80B4D0
:103A900083B000AF786000BF0C37BD465DF8047B93
:103AA000704780B483B000AF786000BF0C37BD466C
:103AB0005DF8047B704780B483B000AF786000BFCE
:103AC0000C37BD465DF8047B7047000080B485B0BC
:103AD00000AF786039607B681B68FB607B68404A98
:103AE000934213D07B68B3F1804F0FD07B683D4A7F
:103AF00093420BD07B683C4A934207D07B683B4A99
:103B0000934203D07B683A4A934208D1FB6823F082
:103B10007003FB603B685B68FA681343FB607B687B
:103B20002F4A93422BD07B68B3F1804F27D07B681C
:103B30002C4A934223D07B682B4A93421FD07B6848
:103B40002A4A93421BD07B68294A934217D07B684C
:103B5000284A934213D07B68274A93420FD07B6850
:103B6000264A93420BD07B68254A934207D07B6854
:103B7000244A934203D07B68234A934208D1FB68CE
:103B800023F44073FB603B68DB68FA681343FB6017
:103B9000FB6823F080023B685B691343FB607B6832
:103BA000FA681A603B689A687B68DA623B681A6850
:103BB0007B689A627B680A4A934203D07B680C4A0E
:103BC000934203D13B681A697B681A637B680122C0
:103BD0005A6100BF1437BD465DF8047B704700BFD3
:103BE000000001400004004000080040000C0040BC
:103BF00000040140004001400044014000480140F1
:103C000000180040001C00400020004080B487B035
:103C100000AF786039607B681B6A23F001027B6823
:103C20001A627B681B6A7B617B685B683B617B68AF
:103C30009B69FB60FB6823F07003FB60FB6823F06B
:103C40000303FB603B681B68FA681343FB607B69F6
:103C500023F002037B613B689B687A6913437B61B5
:103C60007B68204A934203D07B681F4A93420CD161
:103C70007B6923F008037B613B68DB687A69134347
:103C80007B617B6923F004037B617B68154A934267
:103C900003D07B68144A934211D13B6923F48073AB
:103CA0003B613B6923F400733B613B685B693A69A4
:103CB00013433B613B689B693A6913433B617B68F3
:103CC0003A695A607B68FA689A613B685A687B680F
:103CD0005A637B687A691A6200BF1C37BD465DF87B
:103CE000047B7047000001400004014080B487B0AD
:103CF00000AF786039607B681B6A23F010027B6834
:103D00001A627B681B6A7B617B685B683B617B68CE
:103D10009B69FB60FB6823F4E043FB60FB6823F4D2
:103D20004073FB603B681B681B02FA681343FB602F
:103D30007B6923F020037B613B689B681B017A69E8
:103D400013437B617B68224A934203D07B68214AFC
:103D500093420DD17B6923F080037B613B68DB6874
:103D60001B017A6913437B617B6923F040037B610C
:103D70007B68174A934203D07B68164A934213D15B
:103D80003B6923F480633B613B6923F400633B613F
:103D90003B685B699B003A6913433B613B689B69E5
:103DA0009B003A6913433B617B683A695A607B68C0
:103DB000FA689A613B685A687B689A637B687A699B
:103DC0001A6200BF1C37BD465DF8047B704700BF18
:103DD000000001400004014080B487B000AF78606B
:103DE00039607B681B6A23F480727B681A627B6887
:103DF0001B6A7B617B685B683B617B68DB69FB609E
:103E0000FB6823F07003FB60FB6823F00303FB6097
:103E10003B681B68FA681343FB607B6923F40073FB
:103E20007B613B689B681B027A6913437B617B68FB
:103E3000214A934203D07B68204A93420DD17B698B
:103E400023F400637B613B68DB681B027A691343E0
:103E50007B617B6923F480637B617B68164A9342B4
:103E600003D07B68154A934213D13B6923F48053F6
:103E70003B613B6923F400533B613B685B691B0179
:103E80003A6913433B613B689B691B013A691343E1
:103E90003B617B683A695A607B68FA68DA613B6823
:103EA0005A687B68DA637B687A691A6200BF1C37DC
:103EB000BD465DF8047B70470000014000040140EE
:103EC00080B487B000AF786039607B681B6A23F4E8
:103ED00080527B681A627B681B6A3B617B685B6807
:103EE0007B617B68DB69FB60FB6823F4E043FB607C
:103EF000FB6823F44073FB603B681B681B02FA6895
:103F00001343FB603B6923F400533B613B689B68B0
:103F10001B033A6913433B617B68124A934203D007
:103F20007B68114A934209D17B6923F480437B610A
:103F30003B685B699B017A6913437B617B687A69A3
:103F40005A607B68FA68DA613B685A687B681A6471
:103F50007B683A691A6200BF1C37BD465DF8047B76
:103F6000704700BF000001400004014080B487B0EA
:103F700000AFF860B9607A603B60FB681B6A23F0B1
:103F80000102FB681A62FB689B697B61FB681B6A24
:103F90003B61FB68284A93421BD0FB68B3F1804F1A
:103FA00017D0FB68254A934213D0FB68244A9342FA
:103FB0000FD0FB68234A93420BD0FB68224A9342FE
:103FC00007D0FB68214A934203D0FB68204A934202
:103FD00001D1012300E00023002B08D07B6923F0EE
:103FE00003037B617A697B6813437B6103E07B6930
:103FF00043F001037B617B6923F0F0037B613B6845
:104000001B01DBB27A6913437B613B6923F00A032E
:104010003B61BB6803F00A033A6913433B61FB68E9
:104020007A699A61FB683A691A6200BF1C37BD461B
:104030005DF8047B704700BF0000014000040040B1
:1040400000080040000C0040000401400040014016
:104050000018004080B487B000AFF860B9607A60A3
:10406000FB681B6A7B61FB681B6A23F00102FB682B
:104070001A62FB689B693B613B6923F0F0033B617B
:104080007B681B013A6913433B617B6923F00A0398
:104090007B617A69BB6813437B61FB683A699A610B
:1040A000FB687A691A6200BF1C37BD465DF8047B65
:1040B000704780B487B000AFF860B9607A603B6049
:1040C000FB681B6A23F01002FB681A62FB689B699D
:1040D0007B61FB681B6A3B617B6923F440737B61F6
:1040E0007B681B027A6913437B617B6923F470430D
:1040F0007B613B681B039BB27A6913437B613B691D
:1041000023F0A0033B61BB681B0103F0A0033A69E5
:1041100013433B61FB687A699A61FB683A691A62EA
:1041200000BF1C37BD465DF8047B704780B487B084
:1041300000AFF860B9607A60FB681B6A23F0100278
:10414000FB681A62FB689B697B61FB681B6A3B61C9
:104150007B6923F470437B617B681B037A6913439B
:104160007B613B6923F0A0033B61BB681B013A699B
:1041700013433B61FB687A699A61FB683A691A628A
:1041800000BF1C37BD465DF8047B704780B487B024
:1041900000AFF860B9607A603B60FB681B6A23F48B
:1041A0008072FB681A62FB68DB697B61FB681B6AD3
:1041B0003B617B6923F003037B617A697B6813436E
:1041C0007B617B6923F0F0037B613B681B01DBB201
:1041D0007A6913437B613B6923F420633B61BB68CD
:1041E0001B0203F420633A6913433B61FB687A695D
:1041F000DA61FB683A691A6200BF1C37BD465DF898
:10420000047B704780B487B000AFF860B9607A6013
:104210003B60FB681B6A23F48052FB681A62FB68F0
:10422000DB697B61FB681B6A3B617B6923F440733C
:104230007B617B681B027A6913437B617B6923F492
:1042400070437B613B681B039BB27A6913437B61BC
:104250003B6923F420433B61BB681B0303F4204309
:104260003A6913433B61FB687A69DA61FB683A6932
:104270001A6200BF1C37BD465DF8047B704780B4EE
:1042800085B000AF786039607B689B68FB60FB6835
:1042900023F07003FB603A68FB68134343F00703A5
:1042A000FB607B68FA689A6000BF1437BD465DF812
:1042B000047B704780B487B000AFF860B9607A6063
:1042C0003B60FB689B687B617B6923F47F437B6178
:1042D0003B681A027B681A43BB6813437A6913432D
:1042E0007B61FB687A699A6000BF1C37BD465DF848
:1042F000047B704780B487B000AFF860B9607A6023
:10430000BB6803F01F03012202FA03F37B61FB6821
:104310001A6A7B69DB431A40FB681A62FB681A6AF7
:10432000BB6803F01F03796801FA03F31A43FB68C3
:104330001A6200BF1C37BD465DF8047B7047000061
:1043400080B485B000AF786039607B6893F83C300A
:10435000012B01D102235AE07B68012283F83C2023
:104360007B68022283F83D207B681B685B68FB60EA
:104370007B681B689B68BB60FB6823F07003FB6075
:104380003B681B68FA681343FB607B681B68FA682C
:104390005A607B681B68214A934222D07B681B6865
:1043A000B3F1804F1DD07B681B681D4A934218D023
:1043B0007B681B681B4A934213D07B681B681A4AB0
:1043C00093420ED07B681B68184A934209D07B68E1
:1043D0001B68174A934204D07B681B68154A9342B6
:1043E0000CD1BB6823F08003BB603B685B68BA6894
:1043F0001343BB607B681B68BA689A607B680122C4
:1044000083F83D207B68002283F83C200023184677
:104410001437BD465DF8047B704700BF00000140C3
:104420000004004000080040000C0040000401406F
:10443000004001400018004080B483B000AF7860B5
:1044400000BF0C37BD465DF8047B704780B483B075
:1044500000AF786000BF0C37BD465DF8047B704745
:10446000014B1868704700BF6800002070B50D4D03
:104470000D4C641BA4100026A64209D10B4D0C4C18
:1044800002F04EFD641BA4100026A64205D170BDAB
:1044900055F8043B98470136EEE755F8043B98473A
:1044A0000136F2E7347300083473000834730008EF
:1044B0003873000802440346934200D1704703F862
:1044C000011BF9E72DE9FF4755EC104B002D0E4677
:1044D00019462B46BBBF05F100431D4600232D2383
:1044E0000B700D9BDDF830A0914623F02008BCBF77
:1044F00022461446B8F1460F05D0B8F1450F00D159
:104500000136022100E0032103AB019302AB0093CB
:1045100045EC104B5346324600F0E2FCB8F1470F31
:10452000074602D119F0010F22D0B8F1460F07EB70
:10453000060910D13B78302B0AD1002200232046F7
:104540002946FCF7C1FA18B9C6F10106CAF800609D
:10455000DAF8003099440022002320462946FCF76F
:10456000B3FA08B1CDF80C903022039B4B4507D32A
:10457000039B0E9ADB1B3846136004B0BDE8F0873E
:10458000591C03911A70F0E7F7B503460029B8BF2C
:10459000494203F8022BB4BF2D222B220929427075
:1045A0002ADD0DF10704A4460A27A6460A4691FB18
:1045B000F7F607FB16153035632A04F1FF340EF8C1
:1045C000015C3146F1DC3031AEF1020504F8011C2A
:1045D000441C294661450AD30DF10902A2EB0E02E3
:1045E000654588BF00221344181A03B0F0BD11F8C6
:1045F000012B04F8012FEDE7302330318370C170B7
:10460000031DF1E72DE9F04F2DED028B8DB00C4627
:10461000DDF8608016461F46054601F045FBD0F8E0
:1046200000A05046FBF7D4FD00230A9323680593AE
:10463000D8F8003094F818B0073323F0070303F1DB
:104640000802C8F80020D3E90023C4E91223D4E902
:10465000128929F000430793CDF8188008EE100A5C
:104660009F4BDDE906014FF0FF32FCF75FFA88BB94
:10467000DDE906019A4B4FF0FF32FCF739FA48BBEF
:104680000022002340464946FCF728FA10B12D23AA
:1046900084F84330934B9448BBF1470F94BF98463E
:1046A000804603232361059B23F0040222604FF020
:1046B0000009009733460BAA2146284600F0D8F996
:1046C000013040F090804FF0FF300DB0BDEC028B18
:1046D000BDE8F08F42464B4640464946FCF726FA75
:1046E00040B14B46002BBCBF2D2384F843307F489C
:1046F0007F4BD1E763680BF0DF0206925A1C3FD173
:1047000006236360059B616843F480620023039382
:104710000AABCDE901B309AB49EC108B00932260E1
:104720000DF123032846FFF7CDFE069B0999472B81
:10473000804608D1C81C02DB6368994241DDABF1B9
:10474000020B5FFA8BFBBBF1650F20D801395A468B
:1047500004F150000991FFF717FF0A9A1318012A74
:104760008146236102DC2268D20701D5013323612F
:104770009DF82330002B9CD02D2384F8433098E7FC
:10478000069A472ABED1002BBCD10123B9E7BBF161
:10479000660F18D1002963680BDD216113B9226807
:1047A000D00702D501330B442361A1654FF0000906
:1047B000DEE713B92268D20701D50233F4E70123FB
:1047C000F2E74FF0670B0A9B994205DB23682161F2
:1047D000D807EAD54B1CE7E70029D4BFC1F1020294
:1047E00001221344E0E723685A0507D423694246AF
:1047F00031462846B84701302CD164E7BBF1650F3C
:1048000040F2E080D4E9120100220023FCF75CF9B9
:10481000002834D0374A012331462846B8470130B2
:104820003FF451AFDDE909239A4202DB2368D80740
:1048300010D518EE103A524631462846B847013096
:104840003FF441AF4FF0000804F11A090A9B013B05
:10485000434509DC23689B0700F10581E0680B9B59
:104860009842B8BF184630E701234A4631462846E9
:10487000B84701303FF427AF08F10108E6E7099B8C
:10488000002B39DC1B4A012331462846B84701304A
:104890003FF419AFDDE90923134302D12368D90797
:1048A000D8D518EE103A524631462846B84701305E
:1048B0003FF409AF4FF0000904F11A0A099B5B426B
:1048C0004B4501DC0A9B92E70123524631462846BC
:1048D000B84701303FF4F7AE09F10109EEE700BF38
:1048E000FFFFEF7F546F0008586F0008606F0008EB
:1048F0005C6F0008646F00080A9AA36D9A42A8BF13
:104900001A46002A914637DC4FF0000B29EAE97974
:1049100004F11A02A36D0593A3EB09035B4533DC95
:10492000DDE909239A423BDB2368DA0738D40A9B86
:10493000059A09999A1AA3EB01099145A8BF9146D6
:10494000B9F1000F35DC4FF0000829EAE97904F1EC
:104950001A0ADDE909239B1AA3EB090343457FF7F4
:1049600079AF0123524631462846B84701303FF41B
:10497000AAAE08F10108ECE7134631464246284644
:10498000B8470130C0D19EE6012331462846059242
:10499000B84701303FF497AE059A0BF1010BB9E728
:1049A00018EE103A524631462846B8470130BED17B
:1049B00089E6059A4B46424431462846B8470130BD
:1049C000C1D180E60A9A012A01DCDB0738D5012330
:1049D000424631462846B84701303FF474AE18EEDF
:1049E000103A524631462846B84701303FF46BAE84
:1049F000D4E9120100220023FCF766F8D8B90A9B1B
:104A000008F10102013B31462846B84701300ED17A
:104A100059E60123524631462846B84701303FF453
:104A200052AE08F101080A9B013B4345F1DC4B46BD
:104A300004F15002DCE64FF0000804F11A0AF2E734
:104A400001234246DFE701234A4631462846B8475C
:104A500001303FF438AE08F10108E3680B995B1AA6
:104A60004345F0DCFAE64FF0000804F11909F4E7D9
:104A70002DE9F047164699468A680B69DDF82080D3
:104A80009342B8BF1346336091F8432007460C4663
:104A90000AB1013333602368990642BF3368023399
:104AA0003360256815F0060506D104F1190AE3689C
:104AB00032689B1AAB4226DC94F84320131E22680E
:104AC00018BF012392062BD404F14302494638460D
:104AD000C04701301ED02368E568326803F0060342
:104AE000042B08BFAD1AA36822690CBF25EAE5753F
:104AF00000259342C4BF9B1AED1800261A34B54214
:104B00001AD1002008E00123524649463846C047E2
:104B1000013003D14FF0FF30BDE8F0870135C6E723
:104B2000E1185A1C302081F84300224494F84510C3
:104B300082F843100233C7E701232246494638462C
:104B4000C0470130E6D00136D9E700002DE9FF4724
:104B50000F7E0C9D782F914680460C469A4601F1B7
:104B6000430207D8622F0AD8002F00F0D880582FB0
:104B700000F0A38004F1420584F842703AE0A7F106
:104B80006303152BF6D801A151F823F0E54B00087B
:104B9000F94B0008754B0008754B0008754B000871
:104BA000754B0008F94B0008754B0008754B000861
:104BB000754B0008754B0008054D0008294C00088E
:104BC000E74C0008754B0008754B0008274D00089E
:104BD000754B0008294C0008754B0008754B000800
:104BE000EF4C00082B681A1D1B682A6004F142056F
:104BF00084F842300123A3E020682968060601F109
:104C000004030AD50E682B60002E03DA2D237642AA
:104C100084F843305E480A2319E00E682B6010F0D8
:104C2000400F18BF36B2EFE72B682068191D2960C6
:104C3000010601D51E6802E04606FBD51E885448D1
:104C40006F2F0CBF08230A23002184F843106568E6
:104C5000A560002DA2BF216821F0040121600EB9DA
:104C6000002D4DD01546B6FBF3F103FB1167C75D70
:104C700005F8017D3746BB420E46F4D9082B0BD10F
:104C80002368DE0708D5236961689942DEBF3023B7
:104C900005F8013C05F1FF35521B2261CDF800A05B
:104CA0004B4603AA21464046FFF7E2FE01304CD1B5
:104CB0004FF0FF3004B0BDE8F087354881F845700B
:104CC0002968236851F8046B29601D0614D5DF0795
:104CD00044BF43F0200323601EB9236823F0200360
:104CE00023601023B0E7236843F020032360782378
:104CF000284884F84530E3E7590648BFB6B2E6E7EE
:104D00001546BBE72B6826686169181D28603506C3
:104D10001B6801D5196002E07006FBD519800023DD
:104D200023611546BAE72B681A1D2A601D68626860
:104D300000212846FBF754FA08B1401B6060636805
:104D40002361002384F84330A8E723692A464946B3
:104D50004046D0470130ABD023689B0713D4E068AE
:104D6000039B9842B8BF1846A4E701233246494640
:104D70004046D04701309BD00135E36803995B1A68
:104D8000AB42F2DCEBE7002504F11906F5E700BFC2
:104D9000666F0008776F00080FB40A4B13B51C68E4
:104DA00024B1A36913B9204600F0E0FE05AB049AD4
:104DB000A1680193204601F039FC02B0BDE8104023
:104DC00004B07047680000202DE9F74F03690C69B3
:104DD000A3420746C0F28180013C01F1140800F1B2
:104DE000140505EB8403019358F8243055F824206A
:104DF00001339A424FEA840B08EB8409B2FBF3F6C5
:104E000031D34FF0000E4046AC46F24650F8042B2A
:104E100093B206FB03E34FEA134E9BB2AAEB0303E4
:104E2000DCF800A0120C13FA8AF306FB02E20093EE
:104E3000009B4FEA124E92B2C2EB1A4202EB23429F
:104E4000BDF80030814543EA02434CF8043B4FEA89
:104E5000224ADBD255F80B302BB9019B043B9D4213
:104E60001A462ED33C61384601F0BEF9002824DBF7
:104E7000013628464FF0000C58F8042BD0F800E01B
:104E800093B2ACEB0303120C13FA8EF3C2EB1E4287
:104E900002EB23429BB243EA0243C14540F8043B84
:104EA0004FEA224CE8D255F8242005EB840322B9BE
:104EB000043B9D421A460AD33C61304603B0BDE82C
:104EC000F08F1268043B002ACCD1013CC7E712687E
:104ED000043B002AF0D1013CEBE70020EEE70000A4
:104EE0002DE9F04F2DED048B57EC106B93B0456A14
:104EF000DDF88080069110EE10AA044609920C930A
:104F0000BB4675B9102000F0D7FE0246606220B99A
:104F1000A74BEA21A74801F0DFFDC0E90155056074
:104F2000C560636A196851B15A684A6001239340A9
:104F30008B60204600F016FF636A00221A603B1E59
:104F4000AABF002323F0004BC8F800309A4BBCBF27
:104F50000122C8F8002033EA0B031BD10C9A42F25D
:104F60000F731360CBF31303334300F09285219B3F
:104F700063B9924B22E0924B01930833219A13605C
:104F8000019813B0BDEC048BBDE8F08F8B4B0193FF
:104F90000333F3E70022002350465946FBF794FD04
:104FA0004BEC19AB804658B10C9A01231360219B3E
:104FB000002B00F06B8583481860431E0193DFE7E8
:104FC0004BEC10AB10AA11A9204601F0B3F9CBF3BA
:104FD0000A5508EE100A002D00F0848019EE903A70
:104FE000C3F3130343F07F57564647F44017A5F227
:104FF000FF35CDF83880744B002230463946FBF738
:1050000043F965A3D3E90023FBF7F6FA64A3D3E9D8
:105010000023FBF73BF9064628460F46FBF782FACA
:1050200061A3D3E90023FBF7E7FA02460B463046BB
:105030003946FBF72BF906460F46FBF78DFD00229C
:105040000090002330463946FBF748FD50B10098E8
:10505000FBF768FA32463B46FBF736FD10B9009B7A
:10506000013B0093009B162B5AD8009A574B03EB39
:10507000C203D3E9002351EC190BFBF72FFD0028E5
:1050800050D0009B013B009300230B93109B5D1BB2
:105090006B1E059345BFC5F1010304930023002354
:1050A0004CBF05930493009B002B3DDB059B009AAE
:1050B0000A921344059300230793069B092B00F2E1
:1050C0008980052BC4BF043B0693069BA3F1020312
:1050D000CCBF00250125032B00F28780DFE803F019
:1050E0002D3A3859DDE910531D4405F23243202B87
:1050F000C1BFC3F1400305F212400BFA03F326FAD5
:1051000000F0DABFC3F1200306FA03F01843FBF7FF
:10511000F9F901230646A1F1F877013D0E936AE7FC
:105120000123B2E70B90B1E7049B009A9B1A04930A
:105130005342079300230A93BFE700230893099B78
:10514000002B55DC0123CDE902331A4609920CE00D
:105150000123F3E70023099A0893009B1344029369
:105160000133012B0393B8BF0123606A0022426020
:10517000042202F114069E4241683DD9204600F007
:10518000B1FD019000283BD1114B02464FF4D5717F
:10519000C0E60123DFE700BF61436F63A787D23F0B
:1051A000B3C8608B288AC63FFB799F501344D33F16
:1051B000956F0008AC6F00080000F07F916F000849
:1051C000886F0008656F00080000F83F0071000854
:1051D0000770000801250023069308954FF0FF3360
:1051E000CDE9023300221223B0E701230893F5E74B
:1051F000099BCDE90233B8E7013141605200B8E7BD
:10520000636A019A1A60039B0E2B00F29D80002DA9
:1052100000F09A80009B002B32DDB74A03F00F03A9
:1052200002EBC303D3E90089009BD8054FEA23179B
:1052300016D5B24B51EC190BD3E90823FBF706FB4B
:1052400007F00F0782468B460325AC4E57B94246FE
:105250004B4650465946FBF7F9FA82468B4628E002
:105260000225F2E7F90708D540464946D6E900236A
:10527000FBF7C2F90135804689467F100836E5E71D
:1052800000F09B80009B9D4F5E429B4B06F00F02FF
:1052900003EBC203D3E9002351EC190BFBF7ACF984
:1052A000361182468B4600230225002E7AD1002B30
:1052B000D3D10B9B002B00F08280914B00225046F3
:1052C0005946FBF70BFC002879D0039B002B76D0C6
:1052D000029B002B36DD009B504659465F1E002284
:1052E000884BFBF789F9029E82468B46013528469A
:1052F000FBF718F952465B46FBF77EF9824B00221A
:10530000FAF7C4FFD046D9468246A1F1507B002E61
:1053100058D17E4B002240464946FAF7B5FF524627
:105320005B4680468946FBF7F7FB002840F09582F4
:1053300052460BF1004340464946FBF7CFFB00289D
:1053400040F089825BEC19AB119B002BC0F24881C5
:10535000009A0E2A00F34481674B03EBC203D3E9A2
:105360000089099B002B80F2D580039B002B00F362
:10537000D18040F06F82654B002240464946FBF7E2
:105380003BF952465B46FBF7BDFB039E37460028C0
:1053900040F04582019D312305F8013B009B01331C
:1053A000009340E2F20705D5D7E90023FBF724F983
:1053B000013501237610083777E7022579E7009F4A
:1053C000039E94E701994C4B31440D91089903EBEE
:1053D000C60353E90223002943D04D490020FBF7BF
:1053E00035FA52465B46FAF74FFF019D82468B46DF
:1053F00049464046FBF7B0FB0646FBF793F80246EA
:105400000B4640464946FAF73FFF303605F8016B38
:1054100052465B4680468946FBF760FB002863D115
:1054200042464B4636490020FAF72EFF52465B466D
:10543000FBF754FB002840F0B5800D9B9D4281D0C6
:10544000304B002250465946FBF7D6F82D4B82468A
:105450008B46404649460022FBF7CEF880468946F7
:10546000C6E750465946FBF7C7F80D9B019D0F93C1
:1054700082468B4649464046FBF76EFB0646FBF7E5
:1054800051F8303602460B4640464946FAF7FCFED4
:1054900005F8016B0D9B9D42804689464FF0000246
:1054A00024D11B4B50465946FAF7F0FE02460B46F4
:1054B00040464946FBF730FB002873D152465B4615
:1054C00013490020FAF7E0FE02460B4640464946E3
:1054D000FBF704FB00283FF435AF0F9D6B1E0F93C5
:1054E00015F8013C302BF8D0009749E0054BFBF74D
:1054F00083F880468946BDE700710008D87000082F
:105500000000F03F0000244000001C400000144058
:105510000000E03F019D56465F4642464B463046FE
:105520003946FBF793F9FBF717FB8246FAF7FAFFC8
:1055300042464B46FBF760F802460B46304639467A
:105540000AF13006FAF7A0FE05F8016B019E039FF1
:10555000AE1BB74202460B4635D1FAF797FE4246DC
:105560004B4606460F46FBF7D7FAD0B942464B46A4
:1055700030463946FBF7A8FA10B11AF0010F10D1E6
:10558000204618EE101A00F0EDFB002300982B7057
:105590000C9B01301860219B002B3FF4F1AC1D6087
:1055A000EEE4009F2B461D4613F8012D392A06D143
:1055B000019A9A42F7D10199302201370A701A787C
:1055C00001321A7090E7A64B0022FBF715F8002273
:1055D000002306460F46FBF777FA00289DD0CFE759
:1055E000089A002A00F0D780069A012A00F3BA80B0
:1055F0000E9A002A00F0B28003F23343079E049D06
:10560000049A1A440492059A01211A4420460592EC
:1056100000F060FC0746002D0CDD059B002B09DD2A
:10562000AB42049AA8BF2B46D21A0492059AED1AEF
:10563000D31A0593079B1BB3089B002B00F0AF8088
:10564000002E13DD39463246204600F003FD18EEE9
:10565000102A01460746204600F052FC18EE101AA8
:105660008046204600F07EFB08EE108A079B9A1BBE
:1056700006D018EE101A204600F0ECFC08EE100AD6
:105680000121204600F026FC0A9B002B064640F331
:1056900088801A460146204600F0DCFC069B012B60
:1056A000064640F381804FF00008336906EB830320
:1056B000186900F0BFFBC0F12000059B184410F0F2
:1056C0001F0000F09280C0F12003042B40F38A8079
:1056D000C0F11C00049B03440493059B0344054450
:1056E0000593049B002B07DD18EE101A1A4620467E
:1056F00000F00AFD08EE100A059B002B05DD31467F
:105700001A46204600F000FD06460B9B002B6ED08B
:1057100018EE100A314600F067FD002867DA009B9A
:10572000013B18EE101A00930A220023204600F0D5
:105730003BFB089B08EE100A002B00F0B181002310
:1057400039460A22204600F02FFB029B002B074619
:1057500000F38E80069B022B51DC89E0109BC3F185
:1057600036034BE7039B5E1E079BB342BFBF079BFD
:105770000796F21A0A9BB6BF9B189E1B0A93039BBF
:10578000B8BF0026002BB7BFDDE90323DDE90335F1
:105790009D1A002334E7079E049D089F3BE7079A64
:1057A00067E7069B012B18DCBAF1000F15D1CBF38C
:1057B000130393B92BF000431B0D1B0583B1049B0E
:1057C00001330493059B013305934FF001080A9BB5
:1057D000002B7FF46AAF01206FE74FF00008F6E777
:1057E0009846F4E73FF47DAF18461C3072E7039B00
:1057F000002B37DC069B022B34DD039B0293029BBC
:105800006BB931460522204600F0CEFA0146064625
:1058100018EE100A00F0E8FC00283FF7BBAD099B2A
:10582000019DDB4300934FF000083146204600F015
:1058300099FA002F3FF4A4AEB8F1000F05D0B84597
:1058400003D04146204600F08DFA3946204600F04C
:1058500089FA95E600263746E1E70097374699E54D
:1058600000002440089B002B00F0CA80039B029399
:10587000002D05DD39462A46204600F045FC074646
:10588000B8F1000F5BD07968204600F02BFA05468E
:1058900028B9874B024640F2EA21FFF73BBB3A6941
:1058A0000232920007F10C010C3000F00DFA0122D7
:1058B0002946204600F028FC019B03F10109DDE99F
:1058C0000123134405930AF00103B84604930746E5
:1058D000314618EE100AFFF777FA4146029000F1C0
:1058E000300A18EE100A00F07FFC3A460390314669
:1058F000204600F095FCC26809F1FF3B054602BB5B
:10590000014618EE100A00F06FFC024629462046B8
:10591000079200F027FADDE9063243EA0201049B10
:105920000B434D460FD1BAF1390F2AD0039B002B00
:1059300002DD029B03F1310A8BF800A075E73846BF
:10594000BAE70122E2E7039B002B04DB06990B4335
:1059500004990B4322D1002AEEDD18EE101A012221
:10596000204600F0D1FB314608EE100A00F03CFC66
:10597000002803DCE0D11AF0010FDDD0BAF1390FB5
:10598000D7D139238BF800302B461D46013B15F843
:10599000012C392A71D001321A7046E7002A07DD3E
:1059A000BAF1390FEDD00AF101038BF800303CE772
:1059B000059B09F801AC994547D018EE101A002351
:1059C0000A22204600F0F0F9B84508EE100A4FF020
:1059D00000034FF00A024146204606D100F0E4F9E8
:1059E0008046074609F1010972E700F0DDF9394602
:1059F000804600230A22204600F0D6F90746F1E748
:105A0000039B0293019D18EE100A3146FFF7DCF963
:105A100000F1300A019B05F801ABEA1A029B9342A0
:105A200009DD18EE101A00230A22204600F0BCF906
:105A300008EE100AE7E7029B002BC8BF1D46019B3A
:105A4000D8BF01251D444FF0000818EE101A01229E
:105A5000204600F059FB314608EE100A00F0C4FB66
:105A6000002891DC02D11AF0010F8DD12B461D4682
:105A700013F8012D302AFAD0D7E6019A9A4284D140
:105A8000009B0133009331231370CEE6094BFFF7DF
:105A900095BA219B002B7FF46EAA074BFFF78EBAB5
:105AA000029B002BAEDC069B022B3FF7A8AEA9E7BA
:105AB00007700008646F0008886F0008002310B5A5
:105AC0000446C0E90033C0E9043383608181436642
:105AD000C2818361194608225C30FEF7EBFC054B5E
