:020000040800F2
:100000002808002041020008CF230008EB21000847
:10001000CD230008191000080F2800080000000078
:10002000000000000000000000000000D3230008D2
:100030001B10000800000000D1230008D523000891
:100040005B0200085B0200085B0200085B0200081C
:100050005B0200085B0200081D1000085B0200083C
:100060005B0200085B0200085B0200085B020008FC
:100070005B0200085B0200085B0200085B020008EC
:100080005B0200085B0200085B0200085B020008DC
:100090005B0200085B0200085B0200085B020008CC
:1000A0005B0200085B0200085B020008792400087C
:1000B0005B0200085B0200085B0200085B020008AC
:1000C0005B0200085B0200085B0200085B0200089C
:1000D0005B0200085B0200085B0200085B0200088C
:1000E0005B0200085B0200085B0200085B0200087C
:1000F0005B0200085B0200085B0200085B0200086C
:100100005B0200085B0200085B0200085B0200085B
:100110005B0200085B0200085B0200085B0200084B
:100120005B0200085B0200085B0200085B0200083B
:100130005B0200085B0200085B0200085B0200082B
:100140005B0200085B0200085B0200085B0200081B
:100150005B0200085B0200085B0200085B0200080B
:100160005B0200085B0200085B0200085B020008FB
:100170005B0200085B0200085B0200080000000050
:100180005B0200085B02000800F002F800F049F88A
:100190000AA090E8000C82448344AAF10107DA45E2
:1001A00001D100F03EF8AFF2090EBAE80F0013F0EB
:1001B000010F18BFFB1A43F0010318470028000085
:1001C00020280000103A24BF78C878C1FAD8520716
:1001D00024BF30C830C144BF04680C6070470000C1
:1001E0000023002400250026103A28BF78C1FBD840
:1001F000520728BF30C148BF0B607047642900F028
:10020000F780002070471FB502F0C5FB9DE8030092
:1002100000F0D4FC00F0DAF91FBD10B500F03FFA91
:1002200010BD00F0A2FA1146FFF7EDFF02F00EFB41
:1002300000F092FC03B4FFF7F0FF03BC00F050FEA7
:100240000948804709480047FEE7FEE7FEE7FEE76A
:10025000FEE7FEE7FEE7FEE7FEE7FEE704480549A6
:10026000054A064B70470000692400088901000810
:10027000280200202808002028040020280400204C
:1002800053EA020C00F069802DE9F04B4FF00006B4
:10029000002B1FBFB3FA83F503FA05F424FA05F621
:1002A0005E4012BF1643B2FA82F502FA05F4C5F1B8
:1002B00020051EBF22FA05FC44EA0C04203556EA4C
:1002C000044C4FEA144418BF641C4FF000084FF070
:1002D0000009904271EB030C39D3002919BFB1FA20
:1002E00081F701FA07F6B0FA80F700FA07F6C7F1CE
:1002F00020071EBF20FA07FC46EA0C062037B6FB93
:10030000F4FCA7EB0507103F07F01F0BCBF120060D
:100310000CFA0BFB2CFA06F644BFB3460026202F3E
:10032000A4BF5E464FF0000B5BEA060C08BF4FF01F
:10033000010B19EB0B09ABFB027C48EB0608C01B59
:1003400006FB02CC0BFB03CC71EB0C01C1E70B46A7
:10035000024641464846BDE8F08B13B54FF0000019
:100360004FF00001AFF30080BDE81C407047000073
:100370000FB4044910B503AA029800F0F9F810BCB4
:100380005DF814FB200100202DE9F0410E460446E3
:10039000002020622046E168884730B3252805D038
:1003A000D4E901219047206A401CF2E7E168204629
:1003B00000278847050018D0A5F14100192802D868
:1003C00020354FF400673246294620462760FFF764
:1003D00015FF40B1012804D0F61D26F007060836A7
:1003E000D8E7361DD6E72846DAE7206ABDE8F0816F
:1003F0002DE9F0410646002410687529314616A5FE
:1004000010D0AFF30080002802DA404213A507E0C5
:1004100031688A0701D512A502E0490704D511A564
:10042000012401E0AFF3008000210A2206F1240735
:1004300009E0B0FBF2FCB0FBF2F302FB1C00303031
:1004400078541846491C0028F3D123462A463046E2
:10045000BDE8F04100F032B8000000002D000000BF
:100460002B000000200000004FF0000200B51346F2
:1004700094469646203922BFA0E80C50A0E80C50C4
:10048000B1F12001BFF4F7AF090728BFA0E80C5075
:1004900048BF0CC05DF804EB890028BF40F8042B6E
:1004A00008BF704748BF20F8022B11F0804F18BFDB
:1004B00000F8012B70477047704770472DE9F047EF
:1004C0000D4699469246044600F1240801688806C4
:1004D00004D5E06921F01001216000E00120A8426C
:1004E00001DD471B00E00027A1697A1902EB090032
:1004F000081AA0612078C00602D42046AFF300801D
:10050000002608E0D4E901211AF806009047206A85
:10051000401C761C20624E45F4DB2078C0060AD5CC
:100520002046AFF3008006E0D4E901213020904757
:10053000206A401C2062381EA7F10107F4DC07E0A6
:10054000D4E9012118F805009047206A401C206278
:10055000281EA5F10105F3DC2046AFF300802078CA
:10056000000602D50220BDE8F0870120FBE700006D
:10057000074B70B50D467B4400F011F80446284641
:1005800000F020F810B14FF0FF3070BD204670BD74
:10059000B722000001694A1C02610878704700B563
:1005A0008FB0CDE901310021059105497944CDE9AC
:1005B000031011466846FFF7E7FE0FB000BD0000CC
:1005C000E5FFFFFF007B00F08000704710B5424858
:1005D0005421FFF749FF41485421FFF745FF4048A8
:1005E0005421FFF741FF3F493B483C4A3F4B0860DD
:1005F0003D490A603A491960531C0365481C10655F
:10060000012008653B48344A39A1784400F008FAD3
:1006100020B9384878440A3800F0A7FA37482F4AFA
:1006200035A1784400F0FCF920B9344878440A3800
:1006300000F09BFA32482A4A2FA1784400F0F0F9E2
:1006400020B92F4878440A3800F08FFA4023224816
:10065000DC000021224600F0BFF920B12548784493
:10066000543800F082FA1D4822464023002100F051
:10067000B3F920B121487844543800F076FA18488C
:1006800022461023002100F0A7F9002806D01C48BC
:100690007844BDE81040563800F067BA10BD1048E5
:1006A00070B5006D20F001040B4800F02FFA0B48E4
:1006B00000F02CFA0A4800F029FA09E0206D20F039
:1006C0000105204600F022FA204600F073F82C467F
:1006D000002CF3D170BD0000CC00002020010020D0
:1006E0007401002030000020340000203800002079
:1006F00072000000A2230000770000008E2300009B
:100700007A2300000EB5CDE9000100F0C9FB02908C
:1007100069460120ABBE0EBD08B5694600900220B7
:10072000ABBE08BD1FB58DE8070069460520ABBE0E
:1007300004B010BD1FB58DE80F0069460620ABBEA2
:10074000F6E708B5694600900920ABBE08BD1CB5A8
:10075000CDE9000169460A20ABBE1CBD704708B553
:10076000694600900C20ABBE08BD754600F004FA47
:10077000AE4605006946534620F00700854618B08E
:1007800020B5FFF76BFDBDE820404FF000064FF0AD
:1007900000074FF000084FF0000B21F00701AC46B6
:1007A000ACE8C009ACE8C009ACE8C009ACE8C009D5
:1007B0008D46704770B50446051F00F0E3F90068E8
:1007C000002C14BF446870BD002C18BFAC423CBF65
:1007D00020466468F8D301680A18AA4218BF456029
:1007E00003D12A6805461144016028684119A142D5
:1007F0001CBF6C6070BD6168696021680844286036
:1008000070BD2DE9F04705460C46C86820F420105D
:1008100040F48000C860800602D5084600F0FFFA68
:10082000E06841F282014FF0FF390140022903D014
:10083000204600F09DFAB5E000F42041B1F5004FEC
:100840000FD1C00306D56168E06A884200D8084627
:10085000606006E02069E06260606069FFF77FFF2A
:10086000A061A0680022EEB200280DDAE1688B05D5
:100870000AD4C043A06041F490302260E060606818
:10088000411C61600670A5E0E0689046226040F47B
:100890000050E060206968BB6069FFF752FF0127E4
:1008A00004F12405A0B1A08910F4407F08D0E069CC
:1008B00000F0B3F9206118B1E06840F4006016E080
:1008C000E7612561E06820F4407040F480600EE04C
:1008D000E06900F0A2F900282061F1D0E06840F45E
:1008E000006010F4407FE06002D140F48070E0606E
:1008F00020696060E06825696FF0010AC1051FD5B5
:100900006168E06A884200D80846411B04D022464C
:10091000284600F037FAF0BBE068010203D5E56233
:10092000C4E9015854E0691CE1626160E16940F486
:100930008030491EC4E9021030462E70BDE8F087B1
:10094000010202D500F480320AE06068411C616057
:100950000670E0680A2E40F48030E06006D0002285
:10096000E16A6068814203D90B4602E00122F7E7A1
:100970000346A7895B1B7F0503D4E7699F4200DD1F
:10098000E2B1814200D80146E5620F1AC4E901587C
:10099000002B09DD00E005E022461946284600F05C
:1009A000F1F908B14846C9E747B1A069E562656059
:1009B000C01BA061E06840F01000E060E068000249
:1009C00008D56168A069E562491B08446560A061BB
:1009D0005046B3E73046B1E770B5C468A50713D0F9
:1009E000650211D4B2F5807F09D0B2F5007F06D040
:1009F000B2F5806F08D1012300F1240106E05D1EED
:100A00006FF07F46B54201D3012070BD0161C36123
:100A1000416024F470611143C160002070BD00008A
:100A20002DE9F0410C4607461646104600F06EF8D8
:100A30002078611C61280AD0722802D077283CD126
:100A400002E00125002405E00225042402E0082438
:100A500048F2020511F8010B2B2806D0622809D0B4
:100A600011F8010C74280AD00BE045F0030544F09E
:100A70000204EFE745F0040544F00104EAE744F01E
:100A8000100438462146FFF73DFE411C15D00021D9
:100A9000316171604FF40071F560F16170612007A0
:100AA00004D530460222002100F0E6F8306D40F017
:100AB000010030653046BDE8F0810020FBE72DE9FC
:100AC000F0410D460646104C206DC10704D0410888
:100AD00004D020F00104F7E722460EE0542000F095
:100AE0009CF807000ED0206D47F001010843542107
:100AF00020653846FFF7B8FC3A4629463046BDE83F
:100B0000F0418DE70020D6E7CC0000202DE9F0472A
:100B100004464FF000094FF0FF37C568D4E904865A
:100B2000A80707D0204600F057F93046FFF7F4FD3C
:100B3000002802DA3846BDE8F087280502D540468D
:100B4000FFF738FE4C212046FFF78EFC206D20F089
:100B5000010020654846EEE710B50446AFF300807B
:100B60002046BDE81040FFF765BB10B500F07EF9E8
:100B7000BDE8104000F074B900487047C80100207B
:100B80007047000000487047D00100207047704750
:100B90007047704738B504460A4600206946AFF3EF
:100BA0000080002808BF38BD02460099204600F0AA
:100BB000A4F9012038BD012000F0F3B9F8B5AFF376
:100BC0000080054600200C46102000BF0646A819EC
:100BD000A0420DD9324669460020AFF300800700DD
:100BE00008BF00F0DEF90098A04218BF0546C419FE
:100BF000FFF7C8FF05600746F01D20F00700461903
:100C0000284600F073F9B44208BFF8BDA21B314674
:100C10003868BDE8F84000F070B970B50646FFF7D7
:100C2000B1FF056806F10B0020F00704B4429CBF39
:100C3000002070BD2B466A68BAB11068A04210D37C
:100C400004F1080188423CBF5068586007D35168DE
:100C5000101941601168091B016058601460101D73
:100C600070BD13465268002AE7D121462846FFF797
:100C700091FF0028DED170BD2DE9F04104461646F3
:100C80000D464769007B80072ED03846FFF759FD97
:100C900050BB3EB3012E02D0022E25D104E02046E7
:100CA00000F045F905441DE03846FFF758FDE168BE
:100CB000002841F01001E16005DA204600F058F804
:100CC0000120BDE8F081C9030BD56268E16A914259
:100CD00000D81146A26911442269891A814200DDB7
:100CE00008460544002D01DA0220EAE7E16A60685F
:100CF000E268814206D29103E06203D522F400311A
:100D000041F01002A6690027AE4213DCE16A81427D
:100D100001D90B4600E0034603EB060C2369ACEB5C
:100D2000030CAC4506DD814201D98C4600E08446C7
:100D30009C4505D1A760276042F02000A5620DE028
:100D4000AD1BE669AE1B8142A66000D90846C01AF9
:100D5000281A20605819606022F0200003490840DA
:100D6000E060002084F84870ABE70000BFCFD7FFF9
:100D7000C16821F4001141F08001C160002181604F
:100D8000016070472DE9F047814614460E464FF04A
:100D9000FF383248D5685769054209D03846A169FD
:100DA000FFF7D5FC002811DB2C48C0430540E56067
:100DB0002B46324649463846FFF7B4FCA16920F07D
:100DC0000042B21A11440028A16103D02046FFF767
:100DD000CFFF4046BDE8F08770B504460569C06A9C
:100DE0006168884200D80846E16821F42011E1607A
:100DF000C90312D5A84208D02246411B2846FFF756
:100E0000C1FF10B14FF0FF3070BD0020E562C4E9B2
:100E10000150E06820F48030E060002070BD10B523
:100E20000446C06820F02000E060A16AA069884202
:100E30000DD02046FFF7D0FFE06820F4405040F08E
:100E40001000E060A06AA0612069E062606044F286
:100E50004001E0688843E06010BD0000100002001F
:100E6000002801D000F03CB87047000010B50146E2
:100E700002A000F07DF8012010BD00005349475248
:100E8000545245443A2052656469726563743A204D
:100E900063616E2774206F70656E3A200000000059
:100EA00010B5431C02E010F8011B71B18107FAD1A3
:100EB0004FF0013202C88C1A8C4314EAC211F9D0E7
:100EC000C01A0A0603D0C01E10BDC01A10BD0A0405
:100ED00001D0801E10BD0902FCD0401E10BD0000D4
:100EE00001491820ABBEFEE7260002000021016088
:100EF000C0E90110704710207047034640688C46D7
:100F0000002818BF88423CBF03464068F8D31868E1
:100F10001844884207D00CF1030020F00700001DA0
:100F2000411A521A0146081D0A60FFF743BC10B56A
:100F30000146C268900703D0900607D5886A0AE088
:100F400000F03EF801210160881E10BD8B694868E1
:100F500018440B69C01A91F848301BB191F8491038
:100F6000401A10BD1103FCD50028FADD401E10BD4B
:100F700070B505460C460A2000E06D1C00F018F81C
:100F800035B128780028F8D102E0641C00F010F890
:100F900014B120780028F8D1BDE870400A2000F094
:100FA00007B810B500F010F8BDE81040FFF758BFC3
:100FB00008B569468DF800000320ABBE08BD0000EF
:100FC00000487047C801002010B5012805D0002155
:100FD00003A0FFF7CDFF012010BD09A1F8E7000035
:100FE00053494752544D454D3A204F7574206F6612
:100FF0002068656170206D656D6F7279000000007A
:101000003A2048656170206D656D6F727920636F5D
:101010007272757074656400FEE77047012000F01D
:1010200001B87047044910B50A68024202D008604E
:10103000FFF7F7FF10BD0000143C01402DE9F84F09
:10104000DFF8BCA10022012503264FF00F090AF1A9
:10105000040BAAF1040E00BF0B6805FA02F423404A
:10106000A34270D10F7907F00307012F01D0022F9F
:1010700016D187684FEA420806FA08FC27EA0C07EF
:10108000D1F80CC00CFA08FC4CEA070CC0F808C0F8
:101090004768A7430C79C4F3001494403C43446070
:1010A0000C79E443A4070AD0C4684FEA420C06FA5C
:1010B0000CF7BC438F6807FA0CF72743C7600C791D
:1010C00004F00304022C12D1D40800EB840CDCF8E9
:1010D00020405707FF0E09FA07F824EA0804D1F860
:1010E000108008FA07F848EA0408CCF82080046861
:1010F0004FEA420C06FA0CF7BC430F7907F00307DE
:1011000007FA0CF7274307604C6814F4403F70D08F
:101110003C4C276847F480472760246822F0030787
:1011200004F480440094384C07EB040CDCF80848C5
:1011300097074FEA177809FA08F7BC43334FB842CC
:1011400002D1002724E054E0314FB84201D10127F9
:101150001EE0304FB84201D1022719E02E4FB842AD
:1011600001D1032714E02D4FB84201D104270FE02D
:101170002B4FB84201D105270AE02A4FB84201D1CE
:10118000062705E0284FB84201D1072700E00827CD
:1011900007FA08F72743CCF80878DAF800405746F2
:1011A000D1F804C09C435FEACC2C00D51C433C60C2
:1011B000DBF800405F46D1F804C09C435FEA8C2C0A
:1011C00000D51C433C60DEF800407746D1F804C0EF
:1011D0009C435FEA8C3C00D51C433C60084F083FB1
:1011E0003C68D1F804C09C435FEACC3C00D51C436A
:1011F0003C60521C102AFFF42FAFBDE8F88F0000AE
:10120000083C0140443802400030014000000240E8
:101210000004024000080240000C0240001002409E
:101220000014024000180240001C0240426921EAFA
:1012300002030A4043EA0241816170470AB18161B9
:1012400070470904FBE70000014880687047000010
:1012500020000020024881680278114481607047B4
:10126000200000200B4810B5016841F400710160B6
:10127000016841F480610160016841F4807101609E
:10128000032000F071F8002000F006F800F024F8C8
:10129000002010BD003C024070B50D4D04464FF4D7
:1012A0007A712878B1FBF0F00A490968B1FBF0F0D7
:1012B00000F0ECFA48B9102C07D200222146501E4B
:1012C00000F032F800206C6070BD012070BD00009D
:1012D000200000202C0000200B4882B0016841F45F
:1012E00080410160006800F4804000900648001FC3
:1012F000016841F080510160006800F0805000906A
:10130000072002B000F030B844380240002809DB62
:1013100000F01F02012191404009800000F1E0200F
:10132000C0F8001170470000F0B40E4B1B680C466B
:10133000C3F30223C3F10705042D00D90425191DA9
:10134000072901D2002300E0DB1E012606FA05F181
:10135000491E214099409E40761E16403143F0BC04
:1013600001F056BA0CED00E0064900F007020868EB
:101370004FF6FF03184040EA0220034A104308607A
:10138000704700000CED00E00000FA052DE9F04781
:101390000E46050065D0DFF81481D8F80000F7B2DA
:1013A00000F00700B04207D288F80070D8F80000BB
:1013B00000F00700B04254D128683D4C810712D597
:1013C000400703D5206840F4E050206028780007EB
:1013D00003D5206840F4604020602068A96820F0B0
:1013E000F000084320602878C0072DD03049686895
:1013F0000839012812D0022813D0032811D0096817
:10140000890700292DDA216821F0030101432160B9
:10141000FFF71AFF814641F2883A0EE00968890316
:10142000EFE709688901ECE7FFF70EFFA0EB090180
:10143000514502D90320BDE8F0872068696800F0B3
:101440000C00B0EB810FEFD1D8F80010404601F04E
:101450000701B14207D90770006800F00700B042E9
:1014600001D00120E7E72878400705D52068E96822
:1014700020F4E050084320602878000706D5206853
:10148000296920F4604040EAC100206000F018F8AB
:101490002168084AC1F30311515CC840064908603D
:1014A00006480068FFF7F8FE0020C4E7003C024051
:1014B00008380240A02900082C0000202400002049
:1014C000154810B5006810F00C02144813D04110F4
:1014D000042A0FD0082A0ED10F4C241F226823683B
:1014E00002F03F025B0207D52068C0F38810A0FB22
:1014F000010106E0084610BD2168C1F38811A1FB77
:1015000000010023FEF7BCFE2168C1F30141491C24
:101510004900B0FBF1F010BD083802400024F4008F
:101520002DE9F84F04006ED02078DFF84C93C00707
:10153000A9F104054AD009F104000168C1F3810151
:10154000012908D00068C0F3810002280AD1D9F827
:101550000000400206D52868800337D5606800285F
:10156000E1D033E06068B0F5803F10D0B0F5A02F37
:10157000286810D020F480302860286820F480206B
:1015800028606068A8B1FFF75FFE06460DE0286896
:1015900040F48030F4E740F480202860F7E700BF93
:1015A000FFF752FE801B642873D828688003F7D5A4
:1015B0000CE0FFF749FE064605E000BFFFF744FEDA
:1015C000801B6428F0D828688003F7D42078DFF8DF
:1015D000AC8280074FF0000A3ED5A748001D016885
:1015E00011F00C0F08D00068C0F3810002280BD165
:1015F000D9F80000400207D42868800716D5E068B3
:10160000012800D112E033E1E068B8B10120C8F848
:101610000000FFF719FE064605E000BFFFF714FEC5
:10162000801B0228C0D828688007F7D52868216960
:1016300020F0F80040EAC10028600DE0C8F800A0E2
:10164000FFF702FE064604E0FFF7FEFD801B0228BE
:101650001FD828688007F7D42078000722D5864F46
:1016600087486169703771B101210160FFF7ECFDB6
:10167000064604E0FFF7E8FD801B022809D8386819
:101680008007F7D50EE0C0F800A0FFF7DDFD0646A5
:1016900005E082E0FFF7D8FD801B02287DD838687E
:1016A0008007F7D42078400768D5DFF8CCB1002751
:1016B0000BF13C0BDBF80000C0000BD4DBF8001092
:1016C00041F08051CBF80010DBF80000012700F05A
:1016D000805000906B4E3068C00510D4306840F4E4
:1016E00080703060FFF7B0FD009005E0FFF7ACFDC3
:1016F0000099401A022850D83068C005F6D55E4ED1
:10170000A0686C3601280FD00528306810D020F072
:1017100001003060306820F004003060A068B8B18B
:10172000FFF792FD00900FE0306840F00100F4E711
:1017300040F004003060F7E7FFF786FD0099411A9A
:1017400041F28830814266D830688007F4D50EE0D7
:10175000FFF77AFD009007E0FFF776FD0099411A48
:1017600041F28830814256D830688007F4D42FB1D6
:10177000DBF8001021F08051CBF80010A069C8B34D
:101780003D49091D0968C1F3810102294AD0022897
:10179000504607D0C8F8600000E03CE0FFF754FD79
:1017A00004463BE04746C8F86000FFF74DFD06469B
:1017B00005E000BFFFF748FD801B02282BD82868F2
:1017C0008001F7D4D4E907010843A16A2E4A4908E9
:1017D00002EB0141626A41EA8211084394F82C103D
:1017E00040EA0161C9F8001001203866FFF72CFDBE
:1017F000044606E03EE000BFFFF726FD001B02287E
:1018000009D828688001F7D534E000BFFFF71CFD38
:10181000001B022802D90320BDE8F88F2868800148
:10182000F4D427E00128F7D0D9F80000E26900F4E9
:10183000800191421CD1226A00F03F01914217D1F0
:1018400047F6C071626A0140B1EB821F10D1A26AF3
:101850004FF0FF3300F4403103EB5202B1EB024F83
:1018600006D194F82C1000F07060B0EB016F01D03D
:101870000120D1E70020CFE70438024000004742B2
:10188000800E4742007000400000FFFF10B5401E70
:10189000B0F1807F01D3012010BD4FF0E0246061E2
:1018A0000F21601700F0B4FF0020A0610720206125
:1018B000002010BD7047704770B590F83C20012A99
:1018C00032D0012480F83C40022280F83D20036899
:1018D0005A689D6822F070060A6832435A60134BBA
:1018E00002689A4214D0B2F1804F11D0104B9A4244
:1018F0000ED0104B9A420BD00F4B9A4208D00F4B90
:101900009A4205D00E4B9A4202D00E4B9A4204D115
:10191000496825F080031943916080F83D4000211B
:1019200080F83C10084670BD022070BD00000140E8
:101930000004004000080040000C0040000401408A
:10194000004001400018004010B5040003D094F896
:101950003D0010B107E0012010BD002084F83C00DC
:10196000204600F01FF8022084F83D00211D206869
:1019700000F088FD012084F8460084F83E0084F8D9
:101980003F0084F8400084F8410084F8420084F865
:10199000430084F8440084F8450084F83D000020AA
:1019A00010BD000008B50068B0F1804F08D10548AF
:1019B000016841F001010160006800F00100009041
:1019C00008BD00004038024070B5044690F83C0065
:1019D0000025012817D0012684F83C60022084F8F5
:1019E0003D002068826822F0770222F47F42826004
:1019F0000868502838D00DDC20284FD005DC90B383
:101A0000102811D14AE0022070BD302846D040286D
:101A10000AD13BE060282FD070280DD0B0F5805F50
:101A200003D0B0F5005F12D0012584F83D6000209E
:101A300084F83C00284670BDCB68D1E901212068BC
:101A400000F091FD2068816841F0770109E0CB68E2
:101A5000D1E90121206800F086FD2068816841F409
:101A600080418160E1E719E0CA684968206800F0B8
:101A70004FFE5021206806E0CA684968206800F0DF
:101A800099FE6021206800F078FDCEE7CA684968B9
:101A9000206800F03DFE40212068F4E722680146FE
:101AA0001046F0E710B5007F012829D1C103154881
:101AB000FFF7BCFB144C4FF00001207801281348BD
:101AC00017D000F07CFB6060A168411AC4E90201F4
:101AD00020690844C4F8100094ED060B51EC100B7B
:101AE00000F0DEFE6061E168BDE8104008A0FEF78E
:101AF0003FBC00F064FB6060A06000202070EBE75A
:101B000010BD0000000C0240000000203C0000203E
:101B10002564200A000000002DE9F041054690F8F8
:101B20003C0000260C46012810D0012085F83C001E
:101B300072B1042A1CD0082A2CD00C2A50D00126BD
:101B4000002085F83C003046BDE8F0810220FBE72C
:101B5000D4E90012E368286800F0ECFD2868816988
:101B600021F00C01816128688169A26811430FE0AE
:101B7000D4E90012E368286800F02EFE2868816925
:101B800021F44061816128688169A26841EA0221EB
:101B90008161D5E72868D4E9002C277B016A21F40C
:101BA00080710162C169036A21F0030141EA0C01FD
:101BB00021F0F00C39074FF420674CEA116123F44F
:101BC000206307EA02221A43C16102622868C169E0
:101BD00021F00C01C1612868C169A268114328E0A5
:101BE0002868D4E90027E168036A23F4805303627C
:101BF000D0F81CC0036A2CF4407C4CEA07274FF64F
:101C0000FF7C27F470470CEA013139434FF4204739
:101C100023F4204307EA02321A43C16102622868B2
:101C2000C16921F44061C1612868C169A26841EAC3
:101C30000221C16184E710B5040003D094F83D008F
:101C400010B107E0012010BD002084F83C002046C0
:101C500000F01EF8022084F83D00211D206800F0ED
:101C600011FC012084F8460084F83E0084F83F000F
:101C700084F8400084F8410084F8420084F843006E
:101C800084F8440084F8450084F83D00002010BD2D
:101C900010B586B0044614216846FEF7E5FB1749E7
:101CA0002068884228D116480021026842F00102CB
:101CB0000260006800F001000590114814380268C5
:101CC00042F010020260006800F0100005904FF42E
:101CD000007000900220CDE901010120CDE9031040
:101CE00069460848FFF7AAF9002211461B20FFF7B2
:101CF0001BFB1B20FFF70AFB06B010BD00000140D4
:101D0000443802400010024030B50446002551B16D
:101D100004290DD0082910D094F8410094F84520EA
:101D2000012811D10EE094F83E0094F84220F7E724
:101D300094F83F0094F84320F2E794F8400094F8B8
:101D40004420EDE7012A01D0012030BD022059B125
:101D5000042912D0082919D084F8410084F84500DC
:101D60000C2944D0012540E084F83E0084F842006C
:101D70002068C26842F0020210E084F83F0084F854
:101D800043002068C26842F0040207E084F8400083
:101D900084F844002068C26842F00802C260012250
:101DA000206800F0D3FB14492068884214D0B0F1B9
:101DB000804F11D0114988420ED0114988420BD072
:101DC0001049884208D01049884205D00F498842FE
:101DD00002D00F49884204D1816801F00701062929
:101DE00003D0016841F001010160284630BD206840
:101DF000C26842F01002D1E7000001400004004038
:101E000000080040000C0040000401400040014078
:101E10000018004070B50446006801694FF00005E5
:101E2000C943890715D4C168C943890711D4E91E7C
:101E3000016101202077206880698007204602D058
:101E4000FFF730FE04E000F0BFF8204600F051F943
:101E5000257720680169C943490717D4C168C94378
:101E6000490713D46FF00401016102202077206834
:101E7000806910F4407F204602D0FFF713FE04E093
:101E800000F0A2F8204600F034F9257720680169B7
:101E9000C943090716D4C168C943090712D46FF0B2
:101EA00008010161042020772068C069800720466E
:101EB00002D0FFF7F7FD04E000F086F8204600F0BE
:101EC00018F9257720680169C943C90617D4C16884
:101ED000C943C90613D46FF01001016108202077AF
:101EE0002068C06910F4407F204602D0FFF7DAFD79
:101EF00004E000F069F8204600F0FBF82577206840
:101F00000169C943C90708D1C168C943C90704D1D8
:101F1000891E0161204600F051F920680169C9431A
:101F2000090609D4C168C943090605D46FF08001C8
:101F300001612046FFF7BEFC20680169C9434906DC
:101F400009D4C168C943490605D46FF04001016155
:101F5000204600F049F920680169C94389060BD47D
:101F6000C168C943890607D46FF02001016120468A
:101F7000BDE87040FFF79FBC70BD000010B586B093
:101F8000044614216846FEF76FFA2068B0F1804FCE
:101F900014D10B480021026842F00102026000687F
:101FA000022200F00100059001200090CDE90121FE
:101FB000CDE9031069460348FFF740F806B010BDAD
:101FC0003038024000000240704770B5044690F877
:101FD0003C0000260D4601280FD0012084F83C006B
:101FE0006AB1042A1DD0082A2FD00C2A3FD001261E
:101FF000002084F83C00304670BD022070BD20688F
:1020000000F0C4FA2068816941F00801816120680C
:10201000816921F004018161206881692A69114385
:1020200011E0206800F0E2FA2068816941F4006163
:1020300081612068816921F4806181612068816902
:102040002A6941EA02218161D2E7206800F004FB9D
:102050002068C16941F00801C1612068C16921F0AF
:102060000401C1612068C1692A69114311E0206837
:1020700000F026FB2068C16941F40061C16120685D
:10208000C16921F48061C1612068C1692A6941EA9E
:102090000221C161ACE710B5040003D094F83D0003
:1020A00010B107E0012010BD002084F83C0020465C
:1020B00000F01EF8022084F83D00211D206800F089
:1020C000E1F9012084F8460084F83E0084F83F00DE
:1020D00084F8400084F8410084F8420084F843000A
:1020E00084F8440084F8450084F83D00002010BDC9
:1020F0007047704710B50446022249B104290ED03A
:10210000082913D094F84100012816D0012010BDF1
:1021100094F83E000128F9D184F83E200FE094F8AD
:102120003F000128F2D184F83F2008E094F84000F5
:102130000128EBD184F8402001E084F841200122FD
:10214000206800F003FA16492068164A884201D038
:10215000904203D1436C43F40043436420688842B7
:1021600013D0B0F1804F10D00F4988420DD00F49E5
:1021700088420AD00E49884207D0904205D00D49C6
:10218000884202D00C49884204D1816801F00701DD
:10219000062903D0016841F001010160002010BD53
:1021A000000001400004014000040040000800401D
:1021B000000C0040004001400018004070470246FB
:1021C000002041B1042909D008290AD00C2901D1E5
:1021D0001068006C70471068406B70471068806B27
:1021E00070471068C06B70477047FEE7F0B587B066
:1021F00014216846FEF738F92E480024016841F0A2
:1022000080010160016801F080010591016841F0E1
:1022100004010160016801F004010591016841F0C9
:1022200001010160016801F001010591016841F0BF
:1022300002010160016801F002010591016841F0AD
:1022400010010160016801F010010591016841F081
:10225000080101600068184F00F008004FF40046C4
:102260000590002231463846FEF7E8FF01254FF47D
:102270008810CDE90050694610480295FEF7DEFE51
:102280000420CDE9000469460D480294FEF7D6FE0D
:102290000096CDE90154694638460394FEF7CEFE18
:1022A000002211460620FFF73FF80620FFF72EF820
:1022B00007B0F0BD30380240000C02400008024078
:1022C0000004024010B586B0002419480594049417
:1022D0000094019402941549039401600F21C0E910
:1022E00001144FF6FF71C0E9031444618461FFF7E4
:1022F000A2FC08B172B6FEE7049404A90C48059448
:10230000FFF7DAFA08B172B6FEE70220009001206A
:10231000CDE901040022694605480394FFF7FCFB60
:10232000002801D072B6FEE706B010BD00000140E3
:102330003C00002010B58EB0002407940894099446
:102340000A940B941C2168460C94FEF78DF81E48E5
:102350004FF08041016040F21F31C0E90114632158
:10236000C0E9031480218161FFF7EEFA08B172B66B
:10237000FEE74FF48050079007A91348FFF724FBAE
:1023800008B172B6FEE71048FFF785FE08B172B6D5
:10239000FEE70B940BA90C480C94FFF78DFA08B1DB
:1023A00072B6FEE76020CDE900040294002269467F
:1023B00005480494FFF709FE08B172B6FEE702482B
:1023C000FFF7DCFD0EB010BD84000020FEE7FEE745
:1023D00070477047FEF73EBF10B592B03021684697
:1023E000FEF742F814210CA8FEF73EF81C480168DD
:1023F00041F080510160006800F080501190194850
:10240000016841F4804101600068022400F48040CA
:10241000119001200090000401908001CDE9064058
:10242000042008904020CDE9090407200B9068465D
:10243000FFF776F808B172B6FEE70F20CDE90C047D
:1024400090200E904FF480500F90109000210CA817
:10245000FEF79CFF002801D072B6FEE712B010BD57
:1024600040380240007000400248016841F47001A9
:102470000160704788ED00E00148FFF7CBBC000029
:102480003C000020F0B50268254C264D264E274F13
:10249000274B4FF0804CA04209D0604507D0A8429E
:1024A00005D0B04203D0B84201D0984204D122F006
:1024B000700E4A6842EA0E02A0421BD0604519D055
:1024C000A84217D0B04215D0B84213D0984211D0CC
:1024D000184DA8420ED0184DA8420BD0174DA84257
:1024E00008D0174DA84205D0164DA84202D0164D6F
:1024F000A84203D122F44075CA682A434D6922F0EC
:1025000080022A4302608A68C2620A688262A0422C
:1025100001D0984201D10969016301214161F0BDF7
:10252000000001400004004000080040000C004092
:1025300000040140004001400044014000480140C7
:1025400000180040001C00400020004010B501F0C1
:102550001F030121046A99408C430462016A9A4076
:102560001143016210BD10B5846842EA032224F4CD
:102570007F440A432243826010BD826822F07002C9
:102580000A4342F00701816070470000F0B5026A1B
:1025900022F001020262036A42688469124E24F04A
:1025A00073050C682C4323F002058B682B430D4DFB
:1025B000A84201D0B04205D123F00807CB683B43C5
:1025C00023F00403A84201D0B04205D14D6922F4A2
:1025D000407215438A692A434260846149684163B5
:1025E0000362F0BD0000014000040140F0B5026A42
:1025F00022F010020262026A436884690D6824F4C2
:10260000E64444EA05248D6822F0200242EA0512DD
:102610000F4D104EA84201D0B04206D1CF6822F033
:10262000800242EA071222F04002A84201D0B042E2
:1026300007D14D6923F4406343EA85038D6943EA7A
:10264000850343608461496881630262F0BD0000D4
:102650000000014000040140F0B5026A22F48072DB
:102660000262026A4368C46922F4007224F07305AE
:102670000C68124E2C438D6842EA05220E4DA8428A
:1026800001D0B04206D1CF6822F4006242EA0722AC
:1026900022F48062A84201D0B04207D14D6923F4F0
:1026A000405343EA05138D6943EA05134360C4614F
:1026B0004968C1630262F0BD0000014000040140AE
:1026C00030B5026A22F480520262046A4268C36929
:1026D0000D6823F4E64343EA05238D6824F400548F
:1026E00044EA0534084DA84202D0084DA84204D15E
:1026F0004D6922F4804242EA85124260C361496812
:102700000164046230BD000000000140000401408B
:1027100010B5036A046A24F001040462846924F099
:10272000F00444EA021423F00A020A4384610262BC
:1027300010BD000070B5046A24F0010404628469CD
:10274000056A154EB04214D0B0F1804F11D0134E2F
:10275000B0420ED0124EB0420BD0124EB04208D052
:10276000114EB04205D0114EB04202D0104EB042D0
:1027700003D124F00304144301E044F001041A07D8
:1027800024F0F00444EA126225F00A0301F00A0181
:1027900019438261016270BD0000014000040040E5
:1027A00000080040000C00400004014000400140CF
:1027B0000018004010B5036A23F010030362836918
:1027C000046A23F4704343EA023224F0A00343EA8C
:1027D00001118261016210BD30B5046A24F0100459
:1027E00004628469056A24F4407444EA022222F4F3
:1027F00070444FF6FF7202EA03322243A02425F010
:10280000A00304EA011119438261016230BDFEE7B1
:102810000907090E002804DB00F1E02080F800140D
:10282000704700F00F0000F1E02080F8141D7047A1
:102830008A68002A01DCFDF7E4BF521E8A604A68FC
:10284000C0B2531C4B60107070470000FEF70AFDC9
:10285000FFF7C2FDFFF7CAFCFFF734FDFFF76AFD83
:1028600000210D48FFF750FA0B4D322448352868F7
:10287000446300212846FFF73DFC084F4FF4004613
:10288000054800214830FFF735FC2868446331468D
:102890003846FEF7CBFCF3E73C000020000C02407A
:1028A0004FEA1153A3F58063D3F11E03A8BFD3F100
:1028B000200C08DB4FF0004242EAC12252EA50529B
:1028C00032FA03F0704709420BD4102BC4BF00202A
:1028D000704703F5787CBCF1FF3F05D04FF0FF3027
:1028E00070474FF00000704770B500F006F800BF69
:1028F0004992248000207047F0E70EF1020E2EF07E
:10290000030E5EF8046B364205D4012A43EB03053F
:1029100015F5001F12D8012841EB010C1CF5001F12
:102920000CD80ED14FEAD17C15F5001F0CEB4C0CE6
:102930000CF1020C08BF4CEBD37C04E04FF0080C08
:1029400001E04FEAD37C0CEB4C0526FA05F606F0C5
:102950000706B6F1040C06D20EEB860CBDE87040FB
:102960004CF0010C6047DFE80CF0090B02024FF05D
:1029700000414FF00000A1F5002170BD194610463E
:10298000012851EB010418BFD4F5001484BF0020C6
:1029900001F0004170BD4FF04070E1EE100A704749
:1029A00000000000000000000102030406070809FF
:1029B0003A7474003A7474003A747400DC290008A4
:1029C000000000203C000000C4010008182A000894
:1029D0003C000020EC070000E001000801000000BE
:1029E00000000000000000000000000000000000E7
:1029F00000000000000000000000000001000000D6
:102A000010000000000000000024F400000000009E
:082A10000000000000000000BE
:040000050800018965
:00000001FF
